S00E0000454550524F4D2E737265634E
S11300000C942A000C9434000C9434000C943400A6
S11300100C9434000C9434000C9434000C9434008C
S11300200C9434000C9434000C9434000C9434007C
S11300300C9434000C9434000C9434000C9434006C
S11300400C9434000C9434000C9434000C9434005C
S11300500C94340011241FBECFE5D8E0DEBFCDBF21
S11300600E9479000C94BD000C940000CF93DF93A0
S1130070C82FD92F0E94A60080EA0E94AF008D2FBE
S11300800E94AF008C2F0E94AF000E94A60081EA5C
S11300900E94AF000E94B600C82F0E94AC008FE1FE
S11300A09EE40197F1F700C000008C2FDF91CF91FF
S11300B008951F93CF93DF93D82F192FC62F0E9433
S11300C0A60080EA0E94AF00812F0E94AF008D2F0E
S11300D00E94AF008C2F0E94AF000E94AC008FECF6
S11300E097E00197F1F700C00000DF91CF911F91D5
S11300F008950E94A0008FEF8ABB8FE19EE40197D0
S1130100F1F700C000006AEF80E290E00E9459001D
S11301109FEF21E18AE7915020408040E1F700C041
S1130120000080E290E00E9436008BBB9FEF23E248
S113013084EF915020408040E1F700C00000FFCFE1
S113014011B880E280B984E086BF089584EA86BF4E
S113015006B607FEFDCF089584E986BF089583B9E6
S113016084E886BF06B607FEFDCF089584E886BFFF
S111017006B607FEFDCF83B10895F894FFCFC5
S9030000FC
