S00C00004C4344382E737265630D
S11300000C942A000C943F000C943F000C943F0085
S11300100C943F000C943F000C943F000C943F0060
S11300200C943F000C943F000C943F000C943F0050
S11300300C943F000C943F000C943F000C943F0040
S11300400C943F000C943F000C943F000C943F0030
S11300500C943F0011241FBECFE5D4E0DEBFCDBF1A
S113006010E0A0E6B0E0EAEAF6E002C005900D92E6
S1130070A037B107D9F70E9429030C9453030C94B9
S11300800000672B09F0DFC0009721F48BB38E7F4B
S11300908BBB08958130910521F48BB38D7F8BBB8D
S11300A008958230910521F48BB38B7F8BBB089527
S11300B08330910521F48BB3877F8BBB0895843003
S11300C0910521F48BB38F7E8BBB08958530910508
S11300D021F48BB38F7D8BBB08958630910521F479
S11300E08BB38F7B8BBB08958730910521F48BB341
S11300F08F778BBB08958A30910521F488B38E7F66
S113010088BB08958B30910521F488B38D7F88BB1B
S113011008958C30910521F488B38B7F88BB0895B2
S11301208D30910521F488B3877F88BB08958E3084
S1130130910521F488B38F7E88BB08958F30910593
S113014021F488B38F7D88BB08958031910521F413
S113015088B38F7B88BB08958131910521F488B3DE
S11301608F7788BB08958431910521F485B38E7F00
S113017085BB08958531910521F485B38D7F85BBB9
S113018008958631910521F485B38B7F85BB08954D
S11301908731910521F485B3877F85BB0895883124
S11301A0910521F485B38F7E85BB0895893191052E
S11301B021F485B38F7D85BB08958A31910521F49F
S11301C085B38F7B85BB08958B31910521F485B36D
S11301D08F7785BB08958E31910521F482B38E7F8C
S11301E082BB08958F31910521F482B38D7F82BB48
S11301F008958032910521F482B38B7F82BB0895E8
S11302008132910521F482B3877F82BB08958232C3
S1130210910521F482B38F7E82BB089583329105C8
S113022021F482B38F7D82BB08958432910521F439
S113023082B38F7B82BB0895859709F0E1C082B3B6
S11302408F7782BB0895009721F48BB381608BBBB9
S113025008958130910521F48BB382608BBB08959E
S11302608230910521F48BB384608BBB0895833075
S1130270910521F48BB388608BBB0895843091057C
S113028021F48BB380618BBB08958530910521F4F3
S11302908BB380628BBB08958630910521F48BB3B8
S11302A080648BBB08958730910521F48BB38068FB
S11302B08BBB08958A30910521F488B3816088BB93
S11302C008958B30910521F488B3826088BB08952A
S11302D08C30910521F488B3846088BB08958D30F7
S11302E0910521F488B3886088BB08958E30910508
S11302F021F488B3806188BB08958F30910521F47F
S113030088B3806288BB08958031910521F488B355
S1130310806488BB08958131910521F488B3806895
S113032088BB08958431910521F485B3816085BB30
S113033008958531910521F485B3826085BB0895C4
S11303408631910521F485B3846085BB0895873196
S1130350910521F485B3886085BB089588319105A2
S113036021F485B3806185BB08958931910521F419
S113037085B3806285BB08958A31910521F485B3E4
S1130380806485BB08958B31910521F485B3806821
S113039085BB08958E31910521F482B3816082BBBF
S11303A008958F31910521F482B3826082BB089550
S11303B08032910521F482B3846082BB0895813236
S11303C0910521F482B3886082BB0895823291053D
S11303D021F482B3806182BB08958332910521F4B4
S11303E082B3806282BB08958432910521F482B382
S11303F0806482BB0895859719F482B3806882BBB8
S11304000895CF93C82F80FF07C061E070E080E0BB
S113041090E00E94410006C060E070E080E090E05F
S11304200E944100C1FF07C061E070E081E090E0FC
S11304300E94410006C060E070E081E090E00E940C
S11304404100C2FF07C061E070E082E090E00E94DA
S1130450410006C060E070E082E090E00E9441004C
S1130460C3FF07C061E070E083E090E00E944100B8
S113047006C060E070E083E090E00E944100C4FFA9
S113048007C061E070E084E090E00E94410006C093
S113049060E070E084E090E00E944100C5FF07C086
S11304A061E070E085E090E00E94410006C060E0F9
S11304B070E085E090E00E944100C6FF07C061E063
S11304C070E086E090E00E94410006C060E070E0C9
S11304D086E090E00E944100CC233CF461E070E0AF
S11304E087E090E00E94410006C060E070E087E091
S11304F090E00E944100CF910895CF93C82F60E00F
S113050070E08AE090E00E9441008C2F0E9401027A
S113051061E070E08BE090E00E9441008FEC97E096
S11305200197F1F700C0000060E070E08BE090E01C
S11305300E9441008FEC97E00197F1F700C00000A2
S1130540CF91089581E00E947D020895813029F4BD
S113055080E8860F0E947D020895823021F480ECA9
S1130560860F0E947D02089560E070E08AE090E0CA
S11305700E94410060E070E08BE090E00E94410046
S11305808FE39CE90197F1F700C0000080E30E942B
S11305907D028FE097E20197F1F700C0000080E34D
S11305A00E947D028FEC97E00197F1F700C00000F4
S11305B080E30E947D028FE19EE40197F1F700C081
S11305C0000088E30E947D028CE00E947D0281E0AD
S11305D00E947D0286E00E947D020895CF93C82F79
S11305E061E070E08AE090E00E9441008C2F0E945C
S11305F0010261E070E08BE090E00E9441008FEC2A
S113060097E00197F1F700C0000060E070E08BE034
S113061090E00E9441008FEC97E00197F1F700C051
S11306200000CF9108950F931F93CF93DF938C0114
S1130630C0E0D0E003C00E94EE022196F801EC0F66
S1130640FD1F80818111F7CFDF91CF911F910F9111
S113065008958FEF8ABB87BB0E94B40261E081E0FA
S11306600E94A60280E690E00E94130361E082E00B
S11306700E94A60288E690E00E9413032FEF81EE09
S113068094E0215080409040E1F700C000000E94B7
S1130690A2022FE788E391E0215080409040E1F7E7
S10D06A000C00000DBCFF894FFCF88
S11306AA4D61686D6F75640053617268616E000014
S9030000FC
