S00D000054494D45522E7372656396
S11300000C942A000C943C000C943C000C943C008E
S11300100C943C000C943C000C943C000C943C006C
S11300200C943C000C943C000C943C000C943C005C
S11300300C943C000C943C000C943C000C943C004C
S11300400C943C000C943C000C943C000C943C003C
S11300500C943C0011241FBECFE5D8E0DEBFCDBF19
S113006020E0A0E6B0E001C01D92A336B207E1F79C
S11300700E943E000C94EF000C9400008FEF84BBB0
S113008008E010E020E030E042E063E080E00E941D
S1130090610080E090E008C08CBFEFE3FCE9319799
S11300A0F1F700C0000001968F3F9105ACF3FFEF1C
S11300B023E284EFF15020408040E1F700C00000CB
S11300C0E8CF0F931F93A82FB0E0FD01E05AFF4F34
S11300D09081911176C0811171C0623041F063301A
S11300E051F0613059F483B7806483BF07C083B78C
S11300F0886083BF03C083B7886483BF423071F0D4
S1130100433081F0413089F4613009F45DC06330DB
S113011009F45DC083B7806183BF07C083B7806281
S113012083BF03C083B7806383BF033011052105F8
S11301303105C9F140F40130110521053105D9F02B
S113014008F448C02CC00034110521053105D9F04C
S113015030F4083011052105310589F027C0011557
S113016081E018072105310591F00115144021059E
S1130170310589F01BC083B7816083BF17C083B783
S1130180826083BF13C083B7836083BF0FC083B70C
S1130190846083BF0BC083B7856083BF07C083B708
S11301A0866083BF03C083B7876083BFFD01E05AC5
S11301B0FF4F81E0808383E090E00EC0892F90E0C0
S11301C00BC084E090E008C082E090E005C082E0CB
S11301D090E002C085E090E01F910F910895F8949B
S10501E0FFCF4B
S9030000FC
