S00D000054494D45522E7372656396
S11300000C942A000C943C000C943C000C943C008E
S11300100C943C000C943C000C943C000C943C006C
S11300200C943C000C943C000C943C000C943C005C
S11300300C943C000C943C000C943C000C943C004C
S11300400C943C000C943C000C943C000C943C003C
S11300500C943C0011241FBECFE5D8E0DEBFCDBF19
S113006020E0A0E6B0E001C01D92A336B207E1F79C
S11300700E943E000C941C010C940000CF93DF936B
S1130080CDB7DEB72A970FB6F894DEBF0FBECDBF4B
S1130090198283E08A8388E090E0A0E0B0E08C835A
S11300A09D83AE83BF8382E08B83CE0101960E9441
S11300B0710080E090E008C08CBFEFE3FCE9319769
S11300C0F1F700C0000001968F3F9105ACF3FFEFFC
S11300D023E284EFF15020408040E1F700C00000AB
S11300E0E8CFDC018C91E82FF0E0E05AFF4F9081DB
S11300F0911196C0811191C011968C911197823003
S113010041F0833051F0813059F483B7806483BF68
S113011007C083B7886083BF03C083B7886483BF85
S113012012968C911297823089F0833099F0813045
S1130130A1F411968C911197813009F474C0833025
S113014009F474C083B7806183BF07C083B780623A
S113015083BF03C083B7806383BF13964D915D91C2
S11301606D917C9116974330510561057105C9F174
S113017040F44130510561057105D9F008F459C0C6
S11301802CC04034510561057105D9F030F4483074
S113019051056105710589F027C0411581E05807B3
S11301A06105710591F0411554406105710589F0AF
S11301B01BC083B7816083BF17C083B7826083BFCE
S11301C013C083B7836083BF0FC083B7846083BFCA
S11301D00BC083B7856083BF07C083B7866083BFC6
S11301E003C083B7876083BF17968C9117978130BC
S11301F019F489B7826089BF18968C911897823058
S113020019F489B7816089BFEC91F0E0E05AFF4F9F
S113021081E0808383E090E00895892F90E0089541
S113022084E090E0089582E090E0089582E090E018
S10F0230089585E090E00895F894FFCF55
S9030000FC
