S00D000054494D45522E7372656396
S11300000C9439000C944B000C944B000C944B0052
S11300100C944B000C944B000C944B000C944B0030
S11300200C944B000C944B000C944B000C944B0020
S11300300C944B000C944B000C944B000C944B0010
S11300400C944B000C944B000C944B000C944B0000
S11300500C944B0038013C014001440148014F011C
S113006056015D01610168016F0176017A01810128
S1130070880111241FBECFE5D8E0DEBFCDBF20E04C
S1130080A0E6B0E001C01D92AA36B207E1F70E94D3
S11300904D000C94A1030C940000CF93DF93CDB7D3
S11300A0DEB765970FB6F894DEBF0FBECDBF1982D9
S11300B083E08A8388E090E0A0E0B0E08E839F83B1
S11300C0A887B98782E08B8381E08F87CE01019670
S11300D00E9472001B8A82E38C8BCE0143960E949D
S11300E00E03FFCFDC019C91E92FF0E0EC59FF4FA8
S11300F0808181117BC2913009F4ABC020F0923031
S113010009F4C7C171C211968C911197823041F0E4
S1130110833051F0813059F483B7806483BF07C0C2
S113012083B7886083BF03C083B7886483BF129694
S11301308C911297823089F0833099F08130A1F448
S113014011968C911197813009F453C2833009F4CC
S113015053C283B7806183BF07C083B7806283BF04
S113016003C083B7806383BF15964D915D916D91F4
S11301707C9118974330510561057105C9F140F42C
S11301804130510561057105D9F008F438C22CC01D
S11301904034510561057105D9F030F448305105FA
S11301A06105710589F027C0411581E05807610593
S11301B0710591F0411554406105710589F01BC02A
S11301C083B7816083BF17C083B7826083BF13C0C6
S11301D083B7836083BF0FC083B7846083BF0BC0C2
S11301E083B7856083BF07C083B7866083BF03C0BE
S11301F083B7876083BF19968C911997813019F45E
S113020089B7826089BF1C968C911C97823019F43F
S113021089B7816089BF1E968C911E97813019F42D
S113022087B3886087BBEC91F0E0EC59FF4F81E025
S11302308083EC91F0E015969C911597E959FF4F56
S11302409083EC91F0E0E05AFF4F808383E090E0EC
S113025008951196EC9111974E2F50E0FA013197C1
S1130260EF30F10508F05AC0E65DFF4F0C948703A8
S11302708FB581608FBD52C08FB582608FBD4EC077
S11302808FB583608FBD4AC08EB588608EBD46C071
S11302908FB581608FBD8EB588608EBD3FC08FB530
S11302A082608FBD8EB588608EBD38C08FB5836087
S11302B08FBD8EB588608EBD31C08EB580618EBD18
S11302C02DC08FB581608FBD8EB580618EBD26C077
S11302D08FB582608FBD8EB580618EBD1FC08FB516
S11302E083608FBD8EB580618EBD18C08EB5886168
S11302F08EBD14C08FB581608FBD8EB588618EBDF3
S11303000DC08FB582608FBD8EB588618EBD06C06D
S11303108FB583608FBD8EB588618EBD13968C9129
S11303201397853041F0863051F0843059F48FB5FD
S113033080648FBD07C08FB580688FBD03C08FB543
S1130340806C8FBD14968C911497883041F089305D
S113035051F0873059F48FB580618FBD07C08FB5D8
S113036080628FBD03C08FB580638FBD15964D919C
S11303705D916D917C91189743305105610571052C
S1130380C9F140F44130510561057105D9F008F413
S113039039C12CC04034510561057105D9F030F4E0
S11303A0483051056105710589F027C0411581E088
S11303B058076105710591F04115544061057105B7
S11303C089F01BC08EB581608EBD17C08EB582606A
S11303D08EBD13C08EB583608EBD0FC08EB5846094
S11303E08EBD0BC08EB585608EBD07C08EB5866090
S11303F08EBD03C08EB587608EBD1A968C911A97F8
S1130400843019F489B7806189BF1B968C911B973E
S1130410853019F489B7886089BF1D968C911D9722
S1130420833019F489B7806289BF1C968C911C971C
S1130430823019F489B7846089BF1F968C911F9705
S1130440813049F481B3806281BBEC91F0E0E05AE1
S1130450FF4F81E0808350968C915097813049F40E
S113046081B3806181BBEC91F0E0EE59FF4F81E0F4
S11304708083EC91F0E0EC59FF4F81E08083EC91B4
S1130480F0E015968C91E959FF4F808383E090E06A
S1130490089511968C911197823041F0833051F078
S11304A0813059F485B5806485BD07C085B5886001
S11304B085BD03C085B5886485BD12968C9112975D
S11304C0823089F0833099F08130A1F411968C91B7
S11304D01197813009F499C0833009F499C085B526
S11304E0806185BD07C085B5806285BD03C085B5C3
S11304F0806385BD15964D915D916D917C911897A2
S1130500403251056105710571F168F441305105BE
S11305106105710501F108F47EC04830510561059B
S11305207105E9F033C0403851056105710519F1D1
S113053030F44034510561057105C9F027C04115F7
S113054081E0580761057105D1F0411554406105FA
S11305507105C9F01BC085B5816085BD17C085B51F
S1130560826085BD13C085B5836085BD0FC085B528
S1130570846085BD0BC085B5856085BD07C085B524
S1130580866085BD03C085B5876085BD19968C914D
S11305901997813019F489B7826089BF1C968C91B0
S11305A01C97823019F489B7816089BF51968C9168
S11305B05197813019F481B3806881BBEC91F0E0EC
S11305C0EC59FF4F81E08083EC91F0E015969C910B
S11305D01597E959FF4F9083EC91F0E0E05AFF4FF3
S11305E0808383E090E0089590E0089584E090E0B3
S11305F0089582E090E0089582E090E0089585E017
S113060090E0089585E090E0089582E090E00895F8
S113061082E090E0089585E090E00895FC01408137
S1130620242F30E0F901EC59FF4F5081513009F08B
S113063052C0FC015281250F311DF901E05AFF4FD0
S11306402081213009F049C0413091F018F0423046
S1130650A1F145C0FC018181FFEF8F9FC0011124EE
S113066064E670E00E9473036F5F6CBF83E00895DB
S1130670552319F0513089F034C0FC018181FFEF1A
S11306808F9FC001112464E670E00E9473036F5FC2
S11306907F4F7BBD6ABD83E00895FC018181FFEF3C
S11306A08F9FC001112464E670E00E9473036F5FA2
S11306B07F4F79BD68BD83E00895FC018181FFEF20
S11306C08F9FC0011124019664E670E00E947303B9
S11306D063BD83E0089582E0089582E0089583E095
S11306E0089583E0089597FB072E16F4009407D02D
S11306F077FD09D00E948D0307FC05D03EF4909548
S113070081959F4F0895709561957F4F0895EE0FE1
S1130710FF1F0590F491E02D0994AA1BBB1B51E126
S113072007C0AA1FBB1FA617B70710F0A61BB70B5D
S1130730881F991F5A95A9F780959095BC01CD0102
S10907400895F894FFCFB8
S9030000FC
