:100000000C9439000C944B000C944B000C944B0056
:100010000C944B000C944B000C944B000C944B0034
:100020000C944B000C944B000C944B000C944B0024
:100030000C944B000C944B000C944B000C944B0014
:100040000C944B000C944B000C944B000C944B0004
:100050000C944B0039013D0141014501490150011A
:1000600057015E0162016901700177017B01820124
:10007000890111241FBECFE5D8E0DEBFCDBF20E04F
:10008000A0E6B0E001C01D92A336B207E1F70E94DE
:100090004D000C94F6020C940000CF93DF93CDB783
:1000A000DEB762970FB6F894DEBF0FBECDBF1982E0
:1000B00083E08A8388E090E0A0E0B0E08E839F83B5
:1000C000A887B98782E08B83CE0101960E948000C9
:1000D00080E090E008C08CBFEFE3FCE93197F1F7D6
:1000E00000C0000001968F3F9105ACF3FFEF23E2C3
:1000F00084EFF15020408040E1F700C00000E8CFDD
:10010000DC018C91E82FF0E0E05AFF4F90819111D3
:100110004FC2813009F49EC020F0823009F4A7C19B
:1001200044C211968C911197823041F0833051F086
:10013000813059F483B7806483BF07C083B7886078
:1001400083BF03C083B7886483BF12968C911297D4
:10015000823089F0833099F08130A1F411968C912E
:100160001197813009F427C2833009F427C283B77D
:10017000806183BF07C083B7806283BF03C083B73A
:10018000806383BF15964D915D916D917C91189719
:100190004330510561057105C9F140F44130510505
:1001A00061057105D9F008F40CC22CC0403451052A
:1001B00061057105D9F030F44830510561057105CC
:1001C00089F027C0411581E058076105710591F05C
:1001D000411554406105710589F01BC083B78160EA
:1001E00083BF17C083B7826083BF13C083B78360A8
:1001F00083BF0FC083B7846083BF0BC083B78560A4
:1002000083BF07C083B7866083BF03C083B787609F
:1002100083BF19968C911997813019F489B7826040
:1002200089BF1C968C911C97823019F489B7816024
:1002300089BF1E968C911E97813019F487B3886010
:1002400087BBEC91F0E0E05AFF4F81E0808383E0D0
:1002500090E008951196EC9111974E2F50E0FA011D
:100260003197EF30F10508F05AC0E65DFF4F0C946E
:10027000F0028FB581608FBD52C08FB582608FBD97
:100280004EC08FB583608FBD4AC08EB588608EBD6D
:1002900046C08FB581608FBD8EB588608EBD3FC072
:1002A0008FB582608FBD8EB588608EBD38C08FB52A
:1002B00083608FBD8EB588608EBD31C08EB5806184
:1002C0008EBD2DC08FB581608FBD8EB580618EBD16
:1002D00026C08FB582608FBD8EB580618EBD1FC078
:1002E0008FB583608FBD8EB580618EBD18C08EB511
:1002F00088618EBD14C08FB581608FBD8EB5886159
:100300008EBD0DC08FB582608FBD8EB588618EBDEC
:1003100006C08FB583608FBD8EB588618EBD139684
:100320008C911397853041F0863051F0843059F428
:100330008FB580648FBD07C08FB580688FBD03C047
:100340008FB5806C8FBD14968C911497883041F0D6
:10035000893051F0873059F48FB580618FBD07C067
:100360008FB580628FBD03C08FB580638FBD15963A
:100370004D915D916D917C911897433051056105C8
:100380007105C9F140F44130510561057105D9F09D
:1003900008F41AC12CC04034510561057105D9F02B
:1003A00030F4483051056105710589F027C04115C9
:1003B00081E058076105710591F0411554406105D0
:1003C000710589F01BC08EB581608EBD17C08EB5DA
:1003D00082608EBD13C08EB583608EBD0FC08EB59A
:1003E00084608EBD0BC08EB585608EBD07C08EB596
:1003F00086608EBD03C08EB587608EBD1A968C91C7
:100400001A97843019F489B7806189BF1B968C9143
:100410001B97853019F489B7886089BF1D968C9128
:100420001D97833019F489B7806289BF1C968C911F
:100430001C97823019F489B7846089BF1F968C910C
:100440001F97813019F481B3806281BB50968C91E3
:100450005097813019F481B3806181BBEC91F0E059
:10046000E05AFF4F81E0808383E090E00895119689
:100470008C911197823041F0833051F0813059F4E2
:1004800085B5806485BD07C085B5886085BD03C01E
:1004900085B5886485BD12968C911297823089F05B
:1004A000833099F08130A1F411968C9111978130AD
:1004B00009F48DC0833009F48DC085B5806185BD98
:1004C00007C085B5806285BD03C085B5806385BDE5
:1004D00015964D915D916D917C9118974032510523
:1004E0006105710571F168F44130510561057105CF
:1004F00001F108F472C04830510561057105E9F059
:1005000033C0403851056105710519F130F44034AC
:10051000510561057105C9F027C0411581E05807F3
:1005200061057105D1F04115544061057105C9F0AF
:100530001BC085B5816085BD17C085B5826085BD4E
:1005400013C085B5836085BD0FC085B5846085BD4A
:100550000BC085B5856085BD07C085B5866085BD46
:1005600003C085B5876085BD19968C911997813038
:1005700019F489B7826089BF1C968C911C978230D0
:1005800019F489B7816089BF51968C915197813058
:1005900019F481B3806881BBEC91F0E0E05AFF4F21
:1005A00081E0808383E090E00895892F90E00895B2
:1005B00084E090E0089582E090E0089582E090E089
:1005C000089585E090E0089585E090E0089582E048
:1005D00090E0089582E090E0089585E090E008952D
:1005E000EE0FFF1F0590F491E02D0994F894FFCFD2
:00000001FF
