S0180000736D616C6C5F63616C63756C61746F722E737265636A
S11300000C946B000C9475000C9475000C947500A2
S11300100C9475000C9475000C9475000C94750088
S11300200C9475000C9475000C9475000C94750078
S11300300C9475000C9475000C9475000C94750068
S11300400C9475000C9475000C9475000C94750058
S11300500C94750007634236B79BD8A71A396856C3
S113006018AEBAAB558C1D3CB7CC5763BD6DEDFDD6
S1130070753EF6177231BF000000803F0800000093
S1130080BE922449123EABAAAA2ABECDCCCC4C3E89
S113009000000080BEABAAAAAA3E00000000BF0078
S11300A00000803F0000000000084178D3BB438774
S11300B0D1133D190E3CC3BD4282AD2B3E68EC8288
S11300C076BED98FE1A93E4C80EFFFBE01C4FF7F0D
S11300D03F000000000011241FBECFE5D8E0DEBFC2
S11300E0CDBF0E943B080C94610C0C940000CF938C
S11300F0DF93DC0120E030E02DC09B3239F4EA01CB
S1130100CC0FDD1FC60FD71F1982188290819D3234
S113011039F4EA01CC0FDD1FC60FD71F19821882EC
S113012090819A3249F4EA01CC0FDD1FC60FD71F24
S113013081E090E09983888390819F3249F4440F51
S1130140551FFB01E40FF51F81E090E0918380834C
S11301502F5F3F4FA901FD01E20FF31F90819D33F3
S113016061F6DF91CF910895CF92DF92EF92FF92E3
S11301700F931F93CF93DF93EC018B016A017901F5
S113018038C0CE010196DC01AA0FBB1FAA0FBB1F0A
S1130190A00FB11FFE013296EE0FFF1FEE0FFF1FDF
S11301A0E00FF11F40815181628173814D935D9312
S11301B06D937C9313971082118212821382D6015D
S11301C0AC0FBD1FF601E80FF91F20812C9310829C
S11301D0DE01AA0FBB1FAE0DBF1D880F991FF701CB
S11301E0E80FF91F808191818D939C931182108275
S11301F02196FE01EE0FFF1FEE0FFF1FE00FF11F10
S1130200608171818281938120E030E0A9010E94A4
S1130210E8088111B6CFDF91CF911F910F91FF9024
S1130220EF90DF90CF9008956F927F928F929F927C
S1130230AF92BF92CF92DF92EF92FF920F931F93F0
S1130240CF93DF934C01FB0180818D3309F46DC0A2
S1130250C0E0D0E05EC0FE01EE0FFF1FE40FF51F0B
S1130260208131812130310509F052C06A017B01BE
S11302709A32F9F43501660C771C660C771C680C0D
S1130280791CF5013196EE0FFF1FEE0FFF1FE80DED
S1130290F91D2081318142815381F3016081718193
S11302A0828193810E94470AF30160837183828370
S11302B09383F80180818F32F9F48501000F111FB7
S11302C0000F111F080D191DF5013196EE0FFF1FC8
S11302D0EE0FFF1FE80DF91D20813181428153810A
S11302E0F80160817181828193810E94ED08F80197
S11302F060837183828393839601A701B401CE0145
S11303000E94B400A601B701C4010E9414010FC0E9
S113031021965E018B010C0F1D1FF80190819D3306
S113032009F099CF80E090E002C080E090E0DF9196
S1130330CF911F910F91FF90EF90DF90CF90BF90DE
S1130340AF909F908F907F906F9008956F927F925F
S11303508F929F92AF92BF92CF92DF92EF92FF92D1
S11303600F931F93CF93DF934C01FB0180818D3357
S113037009F46CC0C0E0D0E05DC0FE01EE0FFF1FC9
S1130380E40FF51F20813181232B09F052C06A014B
S11303907B019B32F9F43501660C771C660C771CE3
S11303A0680C791CF5013196EE0FFF1FEE0FFF1F4D
S11303B0E80DF91D2081318142815381F30160816F
S11303C07181828193810E947C08F301608371832F
S11303D082839383F80180818D32F9F48501000FC3
S11303E0111F000F111F080D191DF5013196EE0F95
S11303F0FF1FEE0FFF1FE80DF91D2081318142819F
S11304005381F80160817181828193810E947B080C
S1130410F80160837183828393839601A701B401F9
S1130420CE010E94B400A601B701C4010E94A60136
S11304300FC021965E018B010C0F1D1FF8019081E6
S11304409D3309F09ACF80E090E002C080E090E014
S1130450DF91CF911F910F91FF90EF90DF90CF909C
S1130460BF90AF909F908F907F906F9008958D3242
S113047049F020F48A52823040F404C08F3211F0E3
S11304808D3319F481E090E0089580E090E00895C0
S11304902F923F924F925F926F927F92AF92BF9250
S11304A0CF92DF92EF92FF920F931F93CF93DF933C
S11304B000D000D000D0CDB7DEB73C016B015A01AB
S11304C0790118013E832D8346C08101000F111F5D
S11304D0000F111F060D171DED81FE81EC0DFD1D92
S11304E04080512C80E3481A5108B701ED81FE8108
S11304F06E1B7F0B072E000C880B990B0E9497092B
S11305009B01AC0160E070E080E291E40E94B40AD7
S113051069837A838B839C83B201550C880B990B76
S11305200E94970929813A814B815C810E94470A84
S11305309B01AC01F80160817181828193810E94E9
S11305407C08F80160837183828393838D819E810B
S113055001979E838D83ED81FE81EA15FB050CF0E6
S1130560B4CF26960FB6F894DEBF0FBECDBFDF9191
S1130570CF911F910F91FF90EF90DF90CF90BF909C
S1130580AF907F906F905F904F903F902F90089521
S11305904F925F926F927F928F929F92AF92BF928F
S11305A0CF92DF92EF92FF920F931F93CF93DF933B
S11305B07C014B012A01C0E0D0E0612C712CA12CFC
S11305C0B12CC12CD12C1DC0812F0E943702019760
S11305D0B9F4F401EC0DFD1D10838FEFC81AD80A8D
S11305E085019E0121503109A301B701C2010E9476
S11305F048028FEFA81AB80A3E018FEF681A780AEA
S11306002196F701EC0FFD1F10811111DDCFDF9151
S1130610CF911F910F91FF90EF90DF90CF90BF90FB
S1130620AF909F908F907F906F905F904F900895C0
S1130630AC0120E030E003C010822F5F3F4FFA018D
S1130640E20FF31F90819111F7CF089520E030E07D
S113065004C0118210822F5F3F4FF901EE0FFF1F7C
S1130660E80FF91F40815181452B99F70895EF92C6
S1130670FF920F931F93CF93DF937C0100E010E070
S113068006C0188219821A821B820F5F1F4FE8016D
S1130690CC0FDD1FCC0FDD1FCE0DDF1D68817981EE
S11306A08A819B8120E030E0A9010E94E808811141
S11306B0E8CFDF91CF911F910F91FF90EF900895B4
S11306C08F929F92AF92BF92CF92DF92EF92FF925E
S11306D00F931F93CF93DF93CDB7DEB7C05DD240A6
S11306E00FB6F894DEBF0FBECDBFAE014F5F5F4FB4
S11306F0BE016F567E4F0E94C802BE016B507E4FF2
S1130700CE018F569E4F0E947700AE014B505E4F34
S1130710BE016F567E4FCE0101960E941401AE01B8
S11307204B505E4FBE016F567E4FCE0101960E9424
S1130730A601CE018B509E4F0E942603CE018F56F8
S11307409E4F0E94180389809A80AB80BC80C501AB
S1130750B4010E945F096B017C019B0100E010E081
S113076019C0EAE0F0E0C901BF010E94390CADEB09
S1130770B2E0AC0FBD1FA00FB11F40E3480F4C9374
S1130780A901481B590BCA01BF010E94390C9B01E6
S11307900F5F1F4F2115310521F720E030E04AE7B4
S11307A054E4C501B4010E94470A0E945F0948E16C
S11307B05CEF4C9D90014D9D300D5C9D300D1124DE
S11307C0260F371FE12CF12C1DC00F2EFAE0CF2E7F
S11307D0D12CF02DC901B6010E94390CE7ECF2E0EE
S11307E0EC0FFD1FEE0DFF1D40E3480F4083A901F0
S11307F0481B590BCA01B6010E94390C9B015FEFDB
S1130800E51AF50A2115310501F78DE30E94F40775
S1130810015011090BC0EDEBF2E0EC0FFD1FE00FEE
S1130820F11F80810E94F4070150110911239CF7E4
S11308301E141F04ACF48EE20E94F40781E0E81A4F
S1130840F1080CC0E7ECF2E0EC0FFD1FEE0DFF1D0C
S113085080810E94F40741E0E41AF108FF2094F734
S1130860CE0101960E943703C053DD4F0FB6F894B2
S1130870DEBF0FBECDBFDF91CF911F910F91FF90CF
S1130880EF90DF90CF90BF90AF909F908F9008959E
S113089084B3816084BB84B3826084BB84B384608A
S11308A084BB84B3886084BB84B38F7E84BB84B3ED
S11308B08F7D84BB84B38F7B84BB84B38F7784BBED
S11308C085B3806185BB85B3806285BB85B3806455
S11308D085BB85B3806885BB85B3816085BB85B3E3
S11308E0826085BB85B3846085BB85B3886085BB26
S11308F0089540E09AC085B3816085BB85B382606A
S113090085BB85B3846085BB85B3886085BB413076
S113091051F028F0423059F0433069F00FC085B3EC
S11309208E7F85BB0BC085B38D7F85BB07C085B328
S11309308B7F85BB03C085B3877F85BB93B3292F8A
S1130940207153B35072952F922B53B35074592B7B
S113095083B3982F991F9927991F892F90E0969513
S1130960982F882797958795582B83B3807190E0AB
S11309709C01329522952F7023273F70232793B330
S11309809072892F90E096958795929582958F70B5
S113099089279F7089278223932323B3207430E00F
S11309A00024220F331F001C220F331F001C232F8F
S11309B0302D8223932323B3221F2227221F30E0CA
S11309C082239323019781F183B3807190E09C018A
S11309D0329522952F7023273F70232793B390726B
S11309E0892F90E096958795929582958F708927A7
S11309F09F7089278223932323B3207430E000243B
S1130A00220F331F001C220F331F001C232F302DF5
S1130A108223932323B3221F2227221F30E0822321
S1130A209323019789F604C04F5F443008F463CFE1
S1130A30443009F44FC04130C1F028F0423031F164
S1130A404330A9F149C0503B09F448C018F4503769
S1130A5031F00BC0503D29F0503E29F006C08FE222
S1130A60089588E3089587E30895503BC9F118F485
S1130A70503731F00BC0503D29F0503E29F006C0EC
S1130A808AE2089585E3089584E30895503B51F183
S1130A9018F4503731F00BC0503D29F0503E29F086
S1130AA006C08DE2089582E3089581E30895503BE2
S1130AB0D9F018F4503731F007C0503D39F0503EAA
S1130AC039F002C08BE2089580E0089580E3089530
S1130AD083E4089580E0089580E0089589E308950B
S1130AE086E3089583E308958DE30895672B09F061
S1130AF0DFC0009721F48BB38E7F8BBB08958130C8
S1130B00910521F48BB38D7F8BBB089582309105C1
S1130B1021F48BB38B7F8BBB08958330910521F433
S1130B208BB3877F8BBB08958430910521F48BB3FD
S1130B308F7E8BBB08958530910521F48BB38F7D17
S1130B408BBB08958630910521F48BB38F7B8BBBCF
S1130B5008958730910521F48BB38F778BBB08956B
S1130B608A30910521F488B38E7F88BB08958B3039
S1130B70910521F488B38D7F88BB08958C3091054D
S1130B8021F488B38B7F88BB08958D30910521F4BF
S1130B9088B3877F88BB08958E30910521F488B38C
S1130BA08F7E88BB08958F30910521F488B38F7DA3
S1130BB088BB08958031910521F488B38F7B88BB6D
S1130BC008958131910521F488B38F7788BB089506
S1130BD08431910521F485B38E7F85BB08958531D9
S1130BE0910521F485B38D7F85BB089586319105E8
S1130BF021F485B38B7F85BB08958731910521F45A
S1130C0085B3877F85BB08958831910521F485B329
S1130C108F7E85BB08958931910521F485B38F7D3D
S1130C2085BB08958A31910521F485B38F7B85BBFB
S1130C3008958B31910521F485B38F7785BB089591
S1130C408E31910521F482B38E7F82BB08958F315A
S1130C50910521F482B38D7F82BB08958032910582
S1130C6021F482B38B7F82BB08958132910521F4F4
S1130C7082B3877F82BB08958232910521F482B3C7
S1130C808F7E82BB08958332910521F482B38F7DD8
S1130C9082BB08958432910521F482B38F7B82BB99
S1130CA00895859709F0E1C082B38F7782BB0895D8
S1130CB0009721F48BB381608BBB0895813091053B
S1130CC021F48BB382608BBB08958230910521F4AB
S1130CD08BB384608BBB08958330910521F48BB36F
S1130CE088608BBB08958430910521F48BB38061B7
S1130CF08BBB08958530910521F48BB380628BBB47
S1130D0008958630910521F48BB380648BBB0895DC
S1130D108730910521F48BB380688BBB08958A30AA
S1130D20910521F488B3816088BB08958B309105C7
S1130D3021F488B3826088BB08958C30910521F436
S1130D4088B3846088BB08958D30910521F488B3FD
S1130D50886088BB08958E30910521F488B3806142
S1130D6088BB08958F30910521F488B3806288BBD5
S1130D7008958031910521F488B3806488BB089577
S1130D808131910521F488B3806888BB089584314A
S1130D90910521F485B3816085BB08958531910562
S1130DA021F485B3826085BB08958631910521F4D1
S1130DB085B3846085BB08958731910521F485B39B
S1130DC0886085BB08958831910521F485B38061DD
S1130DD085BB08958931910521F485B3806285BB73
S1130DE008958A31910521F485B3806485BB089503
S1130DF08B31910521F485B3806885BB08958E31CC
S1130E00910521F482B3816082BB08958F319105ED
S1130E1021F482B3826082BB08958032910521F46B
S1130E2082B3846082BB08958132910521F482B338
S1130E30886082BB08958232910521F482B3806177
S1130E4082BB08958332910521F482B3806282BB10
S1130E5008958432910521F482B3806482BB08959D
S1130E60859719F482B3806882BB0895CF93C82F05
S1130E7080FF07C061E070E080E090E00E947605AA
S1130E8006C060E070E080E090E00E947605C1FF5B
S1130E9007C061E070E081E090E00E94760506C042
S1130EA060E070E081E090E00E947605C2FF07C038
S1130EB061E070E082E090E00E94760506C060E0A8
S1130EC070E082E090E00E947605C3FF07C061E015
S1130ED070E083E090E00E94760506C060E070E078
S1130EE083E090E00E947605CF910895CF93C82FB8
S1130EF060E070E084E090E00E9476058C2F0E9410
S1130F00360761E070E086E090E00E9476058FECA1
S1130F1097E00197F1F700C0000060E070E086E020
S1130F2090E00E9476058FEC97E00197F1F700C0FE
S1130F300000CF91089580E00E94760781E00E942E
S1130F4076070895CF93813061F480E8860FC62F29
S1130F50CF7082958F700E9476078C2F0E9476073F
S1130F600DC0823059F480EC860FC62FCF70829565
S1130F708F700E9476078C2F0E947607CF91089578
S1130F8080E00E9436078FE39CE90197F1F700C0E7
S1130F90000083E00E9476078FE097E20197F1F763
S1130FA000C0000083E00E9476078FEE95E501976C
S1130FB0F1F700C0000083E00E94760782E00E94FF
S1130FC0760782E00E94760788E00E94760780E038
S1130FD00E9476078CE00E94760780E00E947607E4
S1130FE086E00E9476070895CF93DF93D82FDF70B1
S1130FF0C82FC07F61E070E084E090E00E94760535
S11310008C2F82958F700E94360761E070E086E035
S113101090E00E9476058FEC97E00197F1F700C00D
S1131020000060E070E086E090E00E9476058FECBE
S113103097E00197F1F700C000008D2F0E9436075A
S113104061E070E086E090E00E9476058FEC97E026
S11310500197F1F700C0000060E070E086E090E0E6
S11310600E9476058FEC97E00197F1F700C000002D
S1131070DF91CF910895CF93DF93CDB7DEB7C456F8
S1131080D1090FB6F894DEBF0FBECDBF8FEF8ABB78
S11310900E94C0070E94480400E010E00E94790406
S11310A0833439F4CE0101960E9418030E949B07F1
S11310B0F5CF8D3391F4E1E0F0E0EC0FFD1FE00F8C
S11310C0F11F808360E082E00E94A207CE010196B6
S11310D00E94600300E010E0E1CF8823F9F2E1E030
S11310E0F0E0EC0FFD1FE00FF11F80830F5F1F4F37
S11310F00E94F407D3CF5058BB27AA270E94930815
S11311000C940D0A0E94FF0938F00E94060A20F090
S113111039F49F3F19F426F40C94FC090EF4E0957D
S1131120E7FB0C94F609E92F0E941E0A58F3BA173C
S1131130620773078407950720F079F4A6F50C94E9
S1131140400A0EF4E0950B2EBA2FA02D0B01B90125
S113115090010C01CA01A0011124FF27591B99F029
S1131160593F50F4503E68F11A16F040A22F232F35
S1131170342F4427585FF3CF469537952795A79585
S1131180F0405395C9F77EF41F16BA0B620B730B2C
S1131190840BBAF09150A1F0FF0FBB1F661F771F9D
S11311A0881FC2F70EC0BA0F621F731F841F48F452
S11311B0879577956795B795F7959E3F08F0B0CFDB
S11311C09395880F08F09927EE0F979587950895C2
S11311D00E94D20908F481E008950E9401090C9448
S11311E00D0A0E94060A58F00E94FF0940F029F4F3
S11311F05F3F29F00C94F60951110C94410A0C94A8
S1131200FC090E941E0A68F39923B1F3552391F354
S1131210951B550BBB27AA2762177307840738F061
S11312209F5F5F4F220F331F441FAA1FA9F335D0BE
S11312300E2E3AF0E0E832D091505040E695001C72
S1131240CAF72BD0FE2F29D0660F771F881FBB1F2C
S1131250261737074807AB07B0E809F0BB0B802D0A
S1131260BF01FF2793585F4F3AF09E3F510578F036
S11312700C94F6090C94410A5F3FE4F3983ED4F3CE
S1131280869577956795B795F7959F5FC9F7880F0A
S1131290911D9695879597F90895E1E0660F771F5C
S11312A0881FBB1F621773078407BA0720F0621BED
S11312B0730B840BBA0BEE1F88F7E09508950E9418
S11312C066096894B1110C94410A08950E94260A93
S11312D088F09F5798F0B92F9927B751B0F0E1F0F3
S11312E0660F771F881F991F1AF0BA95C9F714C0A3
S11312F0B13091F00E94400AB1E008950C94400A84
S1131300672F782F8827B85F39F0B93FCCF38695DB
S113131077956795B395D9F73EF490958095709538
S113132061957F4F8F4F9F4F0895E89409C097FBB5
S11313303EF490958095709561957F4F8F4F9F4FA8
S11313409923A9F0F92F96E9BB279395F6958795EC
S113135077956795B795F111F8CFFAF4BB0F11F4AF
S113136060FF1BC06F5F7F4F8F4F9F4F16C0882356
S113137011F096E911C0772321F09EE8872F762F8C
S113138005C0662371F096E8862F70E060E02AF0CD
S11313909A95660F771F881FDAF7880F96958795B9
S11313A097F90895990F0008550FAA0BE0E8FEEF8E
S11313B016161706E807F907C0F012161306E40715
S11313C0F50798F0621B730B840B950B39F40A260E
S11313D061F0232B242B252B21F408950A2609F4EC
S11313E0A140A6958FEF811D811D089597F99F67F0
S11313F080E870E060E008959FEF80EC0895002499
S11314000A941616170618060906089500240A9465
S113141012161306140605060895092E0394000CEB
S113142011F4882352F0BB0F40F4BF2B11F460FF7A
S113143004C06F5F7F4F8F4F9F4F089557FD9058A3
S1131440440F551F59F05F3F71F04795880F97FB84
S1131450991F61F09F3F79F087950895121613063E
S11314601406551FF2CF4695F1DF08C0161617066D
S11314701806991FF1CF86957105610508940895A2
S1131480E894BB2766277727CB0197F908950E9434
S11314905A0A0C940D0A0E94FF0938F00E94060AA9
S11314A020F0952311F00C94F6090C94FC091124F6
S11314B00C94410A0E941E0A70F3959FC1F3950F84
S11314C050E0551F629FF001729FBB27F00DB11DC4
S11314D0639FAA27F00DB11DAA1F649F6627B00D54
S11314E0A11D661F829F2227B00DA11D621F739F3D
S11314F0B00DA11D621F839FA00D611D221F749F4B
S11315003327A00D611D231F849F600D211D822F91
S1131510762F6A2F11249F5750409AF0F1F08823B8
S11315204AF0EE0FFF1FBB1F661F771F881F9150E5
S11315305040A9F79E3F510580F00C94F6090C9495
S1131540410A5F3FE4F3983ED4F386957795679517
S1131550B795F795E7959F5FC1F7FE2B880F911D0F
S11315609695879597F90895FA01EE0FFF1F309627
S113157021053105A1F16115710561F48038BFE3DE
S11315809B0749F168949038810561F08038BFEF7A
S11315909B0741F099234AF5FF3FE10531052105F9
S11315A019F1E8940894E795D901AA2329F4AB2FFB
S11315B0BE2FF85FD0F310C0FF5F70F4A695E0F77C
S11315C0F73950F019F0FF3A38F49F779F930DD014
S11315D00F9007FC9058089546F00C94FC0960E0C5
S11315E070E080E89FE308954FE79F775F934F9300
S11315F03F932F930E94AF0B2F913F914F915F9197
S11316000E94470A0C940C0B29F416F00C94F6096A
S11316100C94400A0C94FC090E94260AA8F39638FC
S1131620A0F707F80F92E8942BE33AEA48EB5FE758
S11316300E945D0A0F920F920F924DB75EB70F9200
S11316400E94F70BE4E5F0E00E943E0B4F915F919E
S1131650EF91FF91E595EE1FFF1F49F0FE57E068FB
S11316604427EE0F441FFA95E1F74195550B0E946C
S1131670710B0F9007FE0C94650B0895DF93CF93C5
S11316801F930F93FF92EF92DF927B018C0168947A
S113169006C0DA2EEF010E945A0AFE01E894A591D1
S11316A02591359145915591A6F3EF010E94930838
S11316B0FE019701A801DA9469F7DF90EF90FF909B
S11316C00F911F91CF91DF9108959B01AC0160E0D0
S11316D070E080E89FE30C94ED080C94F6090C94F8
S11316E02B0C0E94260AD8F39923C9F3940F511D99
S11316F0A3F39150504094F059F0882332F0660FD0
S1131700771F881F91505040C1F79E3F51052CF719
S1131710880F911D9695879597F908955F3FACF0D2
S1131720983E9CF0BB27869577956795B79508F406
S1131730B1609395C1F7BB0F58F711F460FFE8CF80
S11317406F5F7F4F8F4F9F4FE3CF0C94410A16F08A
S11317500C942B0C0C94FC0968940C94F6090E94CC
S1131760260AA8F39923C1F3AEF3DF93CF931F9313
S11317700F93FF92C92FDD2788232AF02197660F44
S1131780771F881FDAF720E030E040E85FEB9FE343
S1131790883920F0803E38F021968F770E947C08AB
S11317A0ECE7F0E004C00E947C08E9EAF0E00E9463
S11317B03E0B8B01BE01EC01FB2E6F577109759531
S11317C0771F880B990B0E94970928E132E741E3C0
S11317D05FE30E945A0AAF2D9801AE01FF900F916A
S11317E01F91CF91DF910E9493080C940D0AFA0186
S11317F0DC01AA0FBB1F9B01AC01BF5728F42227B1
S113180033274427507820C0B75190F4AB2F0024DD
S1131810469537952795011CA395D2F3002071F0C6
S1131820220F331F441FB395DAF30ED00C947B08B8
S113183061307105A0E88A07B94630F49B01AC0118
S11318406627772788279078309621F02083318384
S11318504283538308959F3F31F0915020F487953C
S113186077956795B795880F911D9695879597F904
S1131870089597FB072E16F4009407D077FD09D03E
S11318800E944D0C07FC05D03EF4909581959F4F26
S11318900895709561957F4F0895AA1BBB1B51E174
S11318A007C0AA1FBB1FA617B70710F0A61BB70BCC
S11318B0881F991F5A95A9F780959095BC01CD0171
S10918C00895F894FFCF27
S9030000FC
