:100000000C942A000C9434000C9434000C943400AA
:100010000C9434000C9434000C9434000C94340090
:100020000C9434000C9434000C9434000C94340080
:100030000C9434000C9434000C9434000C94340070
:100040000C9434000C9434000C9434000C94340060
:100050000C94340011241FBECFE5D4E0DEBFCDBF29
:100060000E9436000C948F000C9400000E945800EF
:100070000E946B008FEA0E9474000E947100FFCF03
:10008000CF93DF936115710571F0EC016150710937
:100090000E9440009C012C9FC0012D9F900D3C9F11
:1000A000900D112402C081E090E0DF91CF9108957E
:1000B00011B861B1637070E084E090E00E9440008C
:1000C000BC01660F771F80E490E00E947B0060B95E
:1000D00084E086BF089584EA86BF06B607FEFDCF9A
:1000E000089584E986BF089583B984E886BF06B67B
:1000F00007FEFDCF0895AA1BBB1B51E107C0AA1F35
:10010000BB1FA617B70710F0A61BB70B881F991FB8
:100110005A95A9F780959095BC01CD010895F89462
:02012000FFCF0F
:00000001FF
