S00C00004C4344342E7372656311
S11300000C942A000C943F000C943F000C943F0085
S11300100C943F000C943F000C943F000C943F0060
S11300200C943F000C943F000C943F000C943F0050
S11300300C943F000C943F000C943F000C943F0040
S11300400C943F000C943F000C943F000C943F0030
S11300500C943F0011241FBECFE5D8E0DEBFCDBF16
S113006010E0A0E6B0E0E8E8F6E002C005900D92EA
S1130070A037B107D9F70E9419030C9442030C94DA
S11300800000672B09F0DFC0009721F48BB38E7F4B
S11300908BBB08958130910521F48BB38D7F8BBB8D
S11300A008958230910521F48BB38B7F8BBB089527
S11300B08330910521F48BB3877F8BBB0895843003
S11300C0910521F48BB38F7E8BBB08958530910508
S11300D021F48BB38F7D8BBB08958630910521F479
S11300E08BB38F7B8BBB08958730910521F48BB341
S11300F08F778BBB08958A30910521F488B38E7F66
S113010088BB08958B30910521F488B38D7F88BB1B
S113011008958C30910521F488B38B7F88BB0895B2
S11301208D30910521F488B3877F88BB08958E3084
S1130130910521F488B38F7E88BB08958F30910593
S113014021F488B38F7D88BB08958031910521F413
S113015088B38F7B88BB08958131910521F488B3DE
S11301608F7788BB08958431910521F485B38E7F00
S113017085BB08958531910521F485B38D7F85BBB9
S113018008958631910521F485B38B7F85BB08954D
S11301908731910521F485B3877F85BB0895883124
S11301A0910521F485B38F7E85BB0895893191052E
S11301B021F485B38F7D85BB08958A31910521F49F
S11301C085B38F7B85BB08958B31910521F485B36D
S11301D08F7785BB08958E31910521F482B38E7F8C
S11301E082BB08958F31910521F482B38D7F82BB48
S11301F008958032910521F482B38B7F82BB0895E8
S11302008132910521F482B3877F82BB08958232C3
S1130210910521F482B38F7E82BB089583329105C8
S113022021F482B38F7D82BB08958432910521F439
S113023082B38F7B82BB0895859709F0E1C082B3B6
S11302408F7782BB0895009721F48BB381608BBBB9
S113025008958130910521F48BB382608BBB08959E
S11302608230910521F48BB384608BBB0895833075
S1130270910521F48BB388608BBB0895843091057C
S113028021F48BB380618BBB08958530910521F4F3
S11302908BB380628BBB08958630910521F48BB3B8
S11302A080648BBB08958730910521F48BB38068FB
S11302B08BBB08958A30910521F488B3816088BB93
S11302C008958B30910521F488B3826088BB08952A
S11302D08C30910521F488B3846088BB08958D30F7
S11302E0910521F488B3886088BB08958E30910508
S11302F021F488B3806188BB08958F30910521F47F
S113030088B3806288BB08958031910521F488B355
S1130310806488BB08958131910521F488B3806895
S113032088BB08958431910521F485B3816085BB30
S113033008958531910521F485B3826085BB0895C4
S11303408631910521F485B3846085BB0895873196
S1130350910521F485B3886085BB089588319105A2
S113036021F485B3806185BB08958931910521F419
S113037085B3806285BB08958A31910521F485B3E4
S1130380806485BB08958B31910521F485B3806821
S113039085BB08958E31910521F482B3816082BBBF
S11303A008958F31910521F482B3826082BB089550
S11303B08032910521F482B3846082BB0895813236
S11303C0910521F482B3886082BB0895823291053D
S11303D021F482B3806182BB08958332910521F4B4
S11303E082B3806282BB08958432910521F482B382
S11303F0806482BB0895859719F482B3806882BBB8
S11304000895CF93C82F80FF07C061E070E080E0BB
S113041090E00E94410006C060E070E080E090E05F
S11304200E944100C1FF07C061E070E081E090E0FC
S11304300E94410006C060E070E081E090E00E940C
S11304404100C2FF07C061E070E082E090E00E94DA
S1130450410006C060E070E082E090E00E9441004C
S1130460C3FF07C061E070E083E090E00E944100B8
S113047006C060E070E083E090E00E944100CF910C
S11304800895CF93C82F60E070E084E090E00E946C
S113049041008C2F0E94010261E070E086E090E050
S11304A00E94410087EB9BE00197F1F700C0000038
S11304B060E070E086E090E00E94410087EB9BE002
S11304C00197F1F700C00000CF91089580E00E94E9
S11304D0410281E00E9441020895CF93813061F48A
S11304E080E8860FC62FCF7082958F700E944102DC
S11304F08C2F0E9441020DC0823059F480EC860F8B
S1130500C62FCF7082958F700E9441028C2F0E945B
S11305104102CF91089580E00E9401028FE59AEE96
S11305200197F1F700C0000083E00E94410287E9CF
S11305309AE30197F1F700C0000083E00E944102B2
S113054087EE90E80197F1F700C0000083E00E9475
S1130550410282E00E94410282E00E94410288E05E
S11305600E94410280E00E9441028CE00E9441020C
S113057080E00E94410286E00E9441020895CF93E8
S1130580DF93D82FDF70C82FC07F61E070E084E074
S113059090E00E9441008C2F82958F700E9401028E
S11305A061E070E086E090E00E94410087EB9BE010
S11305B00197F1F700C0000060E070E086E090E091
S11305C00E94410087EB9BE00197F1F700C0000017
S11305D08D2F0E94010261E070E086E090E00E94AD
S11305E0410087EB9BE00197F1F700C0000060E059
S11305F070E086E090E00E94410087EB9BE0019769
S1130600F1F700C00000DF91CF9108950F931F937D
S1130610CF938C01C0E003C00E94BF02CF5FF801FA
S1130620EC0FF11D80818111F7CFCF911F910F91B4
S113063008958FEF8ABB0E948B0261E081E00E94E3
S11306406D0280E690E00E9406032FEF82E597E0BA
S1130650215080409040E1F700C0000061E082E05A
S11306600E946D0288E690E00E9406032FEF82E567
S113067097E0215080409040E1F700C000000E94C4
S10B06806602DBCFF894FFCF02
S11306884D61686D6F75640053617268616E000036
S9030000FC
