:100000000C947E000C949B000C949B000C949B0021
:100010000C949B000C949B000C949B000C949B00F4
:100020000C949B000C949B000C949B000C949B00E4
:100030000C949B000C949B000C949B000C949B00D4
:100040000C949B000C949B000C949B000C949B00C4
:100050000C949B004306CF05A2060906A206730670
:10006000A206A206A206A206A206A206A206A20650
:10007000A206A206A206A206A2069E05A206A20645
:10008000A206B206B2062F05A206A206A206A20684
:10009000A206A206A206A206A206B206A206A20610
:1000A0006C05A2063205B206AF078507D9079A0785
:1000B000D907C407D907D907D907D907D907D90755
:1000C000D907D907D907D907D907D907D907D90631
:1000D000D907D907D907E907E907D606D907D90704
:1000E000D907D907D907D907D907D907D907E90700
:1000F000D907D9074607D9070B07E90711241FBEFF
:10010000CFE5D8E0DEBFCDBF10E0A0E6B0E0EAEA80
:10011000FEE102C005900D92AC36B107D9F720E0A0
:10012000ACE6B0E001C01D92A83DB207E1F70E9425
:10013000A00C0C94530F0C940000CF93DF93611527
:10014000710571F0EC01615071090E949D009C01E4
:10015000C29FC001C39F900DD29F900D112402C079
:1001600081E090E0DF91CF9108954F925F926F927E
:100170007F928F929F92AF92BF92CF92DF92EF9237
:10018000FF920F931F93CF93DF93CDB7DEB76497A2
:100190000FB6F894DEBF0FBECDBF2B013C0180E34C
:1001A0008983C301B2010E948E0D4B015C017B016A
:1001B00020E030E04AE754E4C301B2010E94760E29
:1001C0000E948E0D28E13CEF289D6001299DD00CF6
:1001D000389DD00C1124C60ED71E00E010E031C0AF
:1001E0009701ADECBCEC0E94440F969587959695CF
:1001F0008795969587959C01220F331F880F991F2D
:10020000880F991F880F991F820F931F9701281B32
:10021000390BC901E1E0F0E0EC0FFD1FE00FF11F29
:1002200020E3280F20839701281B390B0E94440FDD
:100230007C01F694E794F694E794F694E7940F5FC4
:100240001F4FE114F10461F60115110519F480E363
:100250000E94440C015011090BC0E1E0F0E0EC0FEA
:10026000FD1FE00FF11F80810E94440C0150110915
:1002700011239CF7C114D10499F57FC09601ADEC10
:10028000BCEC0E94440F9695879596958795969518
:1002900087959C01220F331F880F991F880F991F84
:1002A000880F991F820F931F9601281B390BC901D4
:1002B000EBE0F0E0EC0FFD1FE00FF11F20E3280F53
:1002C00020839601281B390B0E94440F6C01D694A1
:1002D000C794D694C794D694C7940F5F1F4F02C09B
:1002E00000E010E0C114D10449F68EE20E94440CF3
:1002F00002301105C1F00330110521F00130110564
:10030000E1F525C0015011090BC0EBE0F0E0EC0F66
:10031000FD1FE00FF11F80810E94440C0150110964
:1003200011239CF72AC080E30E94440C015011095C
:100330000BC0EBE0F0E0EC0FFD1FE00FF11F808140
:100340000E94440C0150110911239CF716C080E350
:100350000E94440C80E30E94440C015011090BC020
:10036000EBE0F0E0EC0FFD1FE00FF11F80810E9439
:10037000440C0150110911239CF764960FB6F894B0
:10038000DEBF0FBECDBFDF91CF911F910F91FF90C8
:10039000EF90DF90CF90BF90AF909F908F907F9025
:1003A0006F905F904F9008956F927F928F929F927F
:1003B000AF92BF92CF92DF92EF92FF920F931F9373
:1003C000CF93DF936C018A01C62FD72F862F972FEB
:1003D000612C712C09C0F601E80FF91F20812E3223
:1003E00011F4642E732E0196482F392F0817190720
:1003F00090F76114710451F1812C912C540154C077
:10040000F601EC0FFD1FE080F12C80E3E81AF10803
:10041000B8016C1B7D0B8AE090E00E949D009C015E
:10042000E29EC001E39E900DF29E900D1124BC014E
:1004300080E090E00E94C40D9B01AC01C501B401B5
:100440000E94AB0C4B015C01219603C0812C912CC6
:1004500054010C171D07A0F669C0F601EC0FFD1F33
:10046000E080F12C30E3E31AF108B8016C1B7D0B3E
:10047000615071098AE090E00E949D009C01E29E1B
:10048000C001E39E900DF29E900D1124BC0180E00E
:1004900090E00E94C40D9B01AC01C501B4010E9413
:1004A000AB0C4B015C012196C615D705B0F2730168
:1004B0003FEFE31AF30A25C0F601EE0DFF1DC081E0
:1004C000D0E0E097B8016E197F098AE090E00E94C1
:1004D0009D009C01C29FC001C39F900DD29F900DB3
:1004E0001124BC0180E090E00E94C40D9B01AC018E
:1004F000C501B4010E94AB0C4B015C013FEFE31A54
:10050000F30A0E151F05C0F6B3018AE090E00E94C1
:100510009D00BC0180E090E00E94C40D9B01AC01F5
:10052000C501B4010E941C0D4B015C01C501B40161
:10053000DF91CF911F910F91FF90EF90DF90CF90BF
:10054000BF90AF909F908F907F906F900895AB0178
:100550004150510960E070E00E94D4010E94E90E10
:100560000895AB014150510960E070E00E94D40150
:1005700020E030E048EC52E40E941C0D0895AC01EC
:1005800020E030E003C010822F5F3F4FFA01E20FFE
:10059000F31F90819111F7CF08958D3249F020F427
:1005A0008A52823040F404C08F3211F08D3319F436
:1005B00081E090E0089580E090E008954F925F928E
:1005C0006F927F928F929F92AF92BF92CF92DF9263
:1005D000EF92FF920F931F93CF93DF938C015B01F8
:1005E0006A01412C512CE12CF12C612C712C26C07C
:1005F0000E94CD020197F9F44701880C991C880CE0
:10060000991C8C0C9D1CA20141505109B301C801D9
:100610000E94D401F4016083718382839383F50186
:10062000EE0DFF1D888180833201FFEF6F1A7F0A74
:100630008FEFE81AF80AEFEF4E1A5E0AE801C40DD0
:10064000D51D88818111D4CFDF91CF911F910F915A
:10065000FF90EF90DF90CF90BF90AF909F908F90E2
:100660007F906F905F904F900895EF92FF920F935D
:100670001F93CF93DF938B017A01EC0128C0CE0149
:100680000196DC01AA0FBB1FAA0FBB1FA00FB11F51
:10069000FE013296EE0FFF1FEE0FFF1FE00FF11F5E
:1006A00040815181628173814D935D936D937C9301
:1006B00013971082118212821382D701AC0FBD1FD3
:1006C000F701E80FF91F80818C9310822196FE01BB
:1006D000EE0FFF1FEE0FFF1FE00FF11F6081718112
:1006E0008281938120E030E0A9010E94170D8111E1
:1006F000C6CFDF91CF911F910F91FF90EF9008959A
:10070000CF92DF92EF92FF920F931F93CF93DF93DD
:10071000FC0120812D3309F468C08B01EC0120E03D
:1007200030E059C08A3219F08F3251F152C067015E
:10073000CC0CDD1CCC0CDD1CC00ED11EF70131969B
:10074000EE0FFF1FEE0FFF1FE00FF11F2081318121
:1007500042815381F60160817181828193810E947F
:10076000760EF6016083718382839383AE01B801B4
:10077000C7010E943503B801CE010E94800337C033
:100780006701CC0CDD1CCC0CDD1CC00ED11EF701AA
:100790003196EE0FFF1FEE0FFF1FE00FF11F2081BC
:1007A000318142815381F60160817181828193811F
:1007B0000E941C0DF6016083718382839383AE01D6
:1007C000B801C7010E943503B801CE010E94800321
:1007D0000EC02F5F3F4F7901FE01E20FF31F8081B2
:1007E0008111A0CF80E090E002C080E090E0DF9136
:1007F000CF911F910F91FF90EF90DF90CF900895D0
:10080000CF92DF92EF92FF920F931F93CF93DF93DC
:10081000FC0120812D3309F468C08B01EC0120E03C
:1008200030E059C08B3219F08D3251F152C067015E
:10083000CC0CDD1CCC0CDD1CC00ED11EF70131969A
:10084000EE0FFF1FEE0FFF1FE00FF11F2081318120
:1008500042815381F60160817181828193810E947E
:10086000AB0CF6016083718382839383AE01B80180
:10087000C7010E943503B801CE010E94000437C0B1
:100880006701CC0CDD1CCC0CDD1CC00ED11EF701A9
:100890003196EE0FFF1FEE0FFF1FE00FF11F2081BB
:1008A000318142815381F60160817181828193811E
:1008B0000E94AA0CF6016083718382839383AE0148
:1008C000B801C7010E943503B801CE010E9400049F
:1008D0000EC02F5F3F4F7901FE01E20FF31F8081B1
:1008E0008111A0CF80E090E002C080E090E0DF9135
:1008F000CF911F910F91FF90EF90DF90CF900895CF
:10090000CF92DF92EF92FF921F93CF93DF93CDB7F9
:10091000DEB7C45FD1400FB6F894DEBF0FBECDBFC7
:100920006A017B01122FAE014F5F5F4FBE016F5610
:100930007E4F0E94DE02112351F11D3229F01F3239
:10094000D1F01A3221F50AC089819A81AB81BC812C
:10095000B05889839A83AB83BC8319C0A7019601E1
:1009600069817A818B819C810E94760E69837A836A
:100970008B839C830CC029813A814B815C81C701A8
:10098000B6010E941C0D69837A838B839C83BE0110
:100990006F5F7F4FCE018F569E4F0E948003BE0136
:1009A0006F5F7F4FCE018F569E4F0E940004112330
:1009B00071F01B3261F4A701960169817A818B8104
:1009C0009C810E94AB0C69837A838B839C836981B1
:1009D0007A818B819C81CC50DE4F0FB6F894DEBFBC
:1009E0000FBECDBFDF91CF911F91FF90EF90DF90B1
:1009F000CF90089584E790E00E94BF0210927300A8
:100A000010927200089584E790E00E94BF02109255
:100A10006D0010926E0010926F0010927000109294
:100A20007300109272000E94CF0B10926C00089518
:100A30000F931F93CF9396C10E943908C82F8093BC
:100A40007100882309F48EC190E0FC01BA97EA3264
:100A5000F10508F077C1E65DFF4F0C943E0F0E9450
:100A6000030580C18091720090917300892B09F475
:100A700079C10E94CF0B80E690E00E948D0C84E744
:100A800090E00E948D0C89E20E94440C60917200FB
:100A90007091730084E790E00E94A70260936D005C
:100AA00070936E0080936F009093700060E070E030
:100AB00082E090E00E94D80B8DE30E94440C60918C
:100AC0006D0070916E0080916F00909170000E9497
:100AD000B5000E94FA0446C18091720090917300A3
:100AE000892B09F43FC10E94CF0B86E690E00E945B
:100AF0008D0C84E790E00E948D0C89E20E94440CEA
:100B000060E070E082E090E00E94D80B8DE30E94EC
:100B1000440C609172007091730084E790E00E9431
:100B2000B10260936D0070936E0080936F0090939C
:100B300070000E94B5000E94FA0414C180917200F6
:100B400090917300009709F40DC1FC01EC58FF4F20
:100B5000C08360E070E082E090E00E94D80B8DE3FB
:100B60000E94440C40916D0050916E0060916F00A6
:100B70007091700020916C0084E790E00E948004E6
:100B800060936D0070936E0080936F00909370007F
:100B90000E94B5000E94FA0410926C00E3C080919C
:100BA000720090917300009749F18C010150110976
:100BB000F801EC58FF4F80810E94CD02019759F453
:100BC000F801EC58FF4FC0830E94CF0B84E790E000
:100BD0000E948D0CC7C08C2F0E94440C8091720023
:100BE00090917300FC01EC58FF4F2091710020831D
:100BF00001969093730080937200B4C00E94CF0B53
:100C0000809171000E94440C8091710080936C006F
:100C1000A9C08091720090917300009749F18C01F6
:100C200001501109F801EC58FF4F80810E94CD025C
:100C3000019759F4F801EC58FF4FC0830E94CF0B85
:100C400084E790E00E948D0C8DC08C2F0E94440C94
:100C50008091720090917300FC01EC58FF4F20913D
:100C600071002083019690937300809372007AC084
:100C70000E94CF0B809171000E94440C8091710002
:100C800080936C006FC08091720090917300009708
:100C900009F468C08C0101501109F801EC58FF4FAC
:100CA00080810E94CD02019759F4F801EC58FF4F62
:100CB000C0830E94CF0B84E790E00E948D0C52C04D
:100CC0008C2F0E94440C8091720090917300FC0163
:100CD000EC58FF4F20917100208301969093730090
:100CE000809372003FC080917200909173000097D2
:100CF000C9F18C0101501109F801EC58FF4F8081B6
:100D00000E94CD02019759F4F801EC58FF4FC083BF
:100D10000E94CF0B84E790E00E948D0C23C08C2FA3
:100D20000E94440C8091720090917300FC01EC5879
:100D3000FF4F209171002083019690937300809360
:100D4000720010C08091720090917300FC01EC5809
:100D5000FF4FC083019690937300809372008C2F95
:100D60000E94440C60916D0070916E0080916F0044
:100D70009091700020E030E0A9010E94170D8823B7
:100D800009F45ACE26C10E94390880937100882345
:100D900009F41FC1482F50E0FA01BA97EA32F10571
:100DA00008F007C1EC5AFF4F0C943E0F0E94030558
:100DB00010C120917200309173002115310509F4A2
:100DC00008C1F901EC58FF4F808360E070E082E0D9
:100DD00090E00E94D80B8DE30E94440C40916D007E
:100DE00050916E0060916F007091700020916C00C6
:100DF00084E790E00E94800460936D0070936E0021
:100E000080936F00909370000E94B5000E94FA04D6
:100E100010926C00DEC00E94CF0B80E690E00E9432
:100E20008D0C60916D0070916E0080916F009091BB
:100E300070000E94B50089E20E94440C60916D0030
:100E400070916E0080916F00909170000E94E90E89
:100E500060936D0070936E0080936F0090937000AC
:100E600060E070E082E090E00E94D80B8DE30E9489
:100E7000440C60916D0070916E0080916F009091B4
:100E800070000E94B5000E94FA04A3C00E94CF0B1C
:100E900086E690E00E948D0C60916D0070916E006E
:100EA00080916F00909170000E94B50089E20E94CD
:100EB000440C20E030E048EC52E460916D00709109
:100EC0006E0080916F00909170000E941C0D6093E5
:100ED0006D0070936E0080936F009093700060E0DF
:100EE00070E082E090E00E94D80B8DE30E94440CF9
:100EF00060916D0070916E0080916F009091700014
:100F00000E94B5000E94FA0464C00E94CF0B609159
:100F10006D0070916E0080916F00909170000E9442
:100F2000B500809171000E94440C80917100809303
:100F30006C004FC00E94CF0B60916D0070916E00ED
:100F400080916F00909170000E94B50080917100B7
:100F50000E94440C8091710080936C003AC00E9402
:100F6000CF0B60916D0070916E0080916F00909139
:100F700070000E94B500809171000E94440C809125
:100F8000710080936C0025C00E94CF0B60916D00B2
:100F900070916E0080916F00909170000E94B5007A
:100FA000809171000E94440C8091710080936C00CC
:100FB00010C02091720030917300F901EC58FF4F7E
:100FC00080832F5F3F4F30937300209372000E9405
:100FD000440C60916D0070916E0080916F00909153
:100FE000700020E030E0A9010E94170D8111CBCEE6
:100FF000CF911F910F91089584B3816084BB84B316
:10100000826084BB84B3846084BB84B3886084BB07
:1010100084B38F7E84BB84B38F7D84BB84B38F7B8A
:1010200084BB84B38F7784BB81B38E7F81BB81B354
:101030008D7F81BB85B3806185BB85B3806285BBB5
:1010400085B3806485BB85B3806885BB82B38160CE
:1010500082BB82B3826082BB85B3816085BB85B36E
:10106000826085BB85B3846085BB85B3886085BBA2
:10107000089580E0E0E0E9C085B3816085BB85B379
:10108000826085BB85B3846085BB85B3886085BB82
:10109000E13051F028F0E23059F0E33069F00FC050
:1010A00085B38E7F85BB0BC085B38D7F85BB07C0A5
:1010B00085B38B7F85BB03C085B3877F85BB23B397
:1010C000207130E0329522952F7023273F7023271F
:1010D00093B39072892F90E096958795929582951B
:1010E0008F7089279F708927880F991F282B93B3AA
:1010F0009074892F90E00024880F991F001C880F9E
:10110000991F001C892F902D880F991F880F991FF8
:10111000822B23B3221F2227221F30E0220F331FEE
:10112000220F331F220F331F822B90B3492F4170A0
:1011300050E09A0122953295307F3227207F322766
:10114000822B20B3227030E036952795220F331F73
:1011500022953295307F3227207F3227822B23B38E
:10116000207130E0D901B295A295AF70AB27BF7066
:10117000AB2763B3607270E09B013695279532957B
:1011800022952F7023273F7023272A233B2363B305
:10119000607470E00024660F771F001C660F771FD5
:1011A000001C672F702D2623372363B3661F662725
:1011B000661F70E02623372360B370E026233723B1
:1011C00060B3627070E07695679526233723232BF2
:1011D000D9F523B3207130E0B901729562956F7033
:1011E00067277F70672743B3407250E09A013695B6
:1011F0002795329522952F7023273F70232726238A
:10120000372343B3407450E00024440F551F001CA3
:10121000440F551F001C452F502D2423352343B365
:10122000441F4427441F50E02423352340B350E09B
:101230002423352340B3427050E05695479524232C
:101240003523232B31F204C0EF5FE43008F414CFD0
:10125000E43009F471C0E13009F130F0E230C1F15D
:10126000E33009F44EC06AC0873381F030F48F3127
:1012700059F08F3209F464C011C08D3359F08E33A8
:1012800059F08B3359F404C08FE2089589E308952F
:1012900088E3089587E3089583E40895873381F010
:1012A00030F48F3159F08F3209F44CC011C08D33B6
:1012B00059F08E3359F08B3359F404C08DE40895FE
:1012C00086E3089585E3089584E3089583E508950A
:1012D000873379F028F48F3151F08F32A9F111C0A2
:1012E0008D3359F08E3359F08B3359F404C081E4B7
:1012F000089583E3089582E3089581E3089580E5E6
:101300000895873389F028F48F3151F08F32F1F04E
:1013100009C08D3369F08E3369F08B3319F406C040
:1013200082E4089580E008958DE308958EE20895A3
:1013300080E3089582E5089580E0089580E00895AF
:101340008AE208958DE208958BE208958BE2089574
:10135000672B09F0DFC0009721F48BB38E7F8BBB26
:1013600008958130910521F48BB38D7F8BBB089557
:101370008230910521F48BB38B7F8BBB0895833032
:10138000910521F48BB3877F8BBB08958430910541
:1013900021F48BB38F7E8BBB08958530910521F4AA
:1013A0008BB38F7D8BBB08958630910521F48BB371
:1013B0008F7B8BBB08958730910521F48BB38F779A
:1013C0008BBB08958A30910521F488B38E7F88BB4A
:1013D00008958B30910521F488B38D7F88BB0895E3
:1013E0008C30910521F488B38B7F88BB08958D30B4
:1013F000910521F488B3877F88BB08958E309105CD
:1014000021F488B38F7E88BB08958F30910521F435
:1014100088B38F7D88BB08958031910521F488B30E
:101420008F7B88BB08958131910521F488B38F7734
:1014300088BB08958431910521F485B38E7F85BBE7
:1014400008958531910521F485B38D7F85BB08957D
:101450008631910521F485B38B7F85BB0895873153
:10146000910521F485B3877F85BB08958831910567
:1014700021F485B38F7E85BB08958931910521F4D0
:1014800085B38F7D85BB08958A31910521F485B39D
:101490008F7B85BB08958B31910521F485B38F77C0
:1014A00085BB08958E31910521F482B38E7F82BB76
:1014B00008958F31910521F482B38D7F82BB089509
:1014C0008032910521F482B38B7F82BB08958132F3
:1014D000910521F482B3877F82BB08958232910502
:1014E00021F482B38F7E82BB08958332910521F46B
:1014F00082B38F7D82BB08958432910521F482B33B
:101500008F7B82BB0895859709F0E1C082B38F7706
:1015100082BB0895009721F48BB381608BBB089543
:101520008130910521F48BB382608BBB08958230AA
:10153000910521F48BB384608BBB089583309105B2
:1015400021F48BB388608BBB08958430910521F41E
:101550008BB380618BBB08958530910521F48BB3EB
:1015600080628BBB08958630910521F48BB3806433
:101570008BBB08958730910521F48BB380688BBBBA
:1015800008958A30910521F488B3816088BB08955D
:101590008B30910521F488B3826088BB08958C302C
:1015A000910521F488B3846088BB08958D3091053E
:1015B00021F488B3886088BB08958E30910521F4AA
:1015C00088B3806188BB08958F30910521F488B37A
:1015D000806288BB08958031910521F488B38064CE
:1015E00088BB08958131910521F488B3806888BB58
:1015F00008958431910521F485B3816085BB0895F8
:101600008531910521F485B3826085BB08958631CB
:10161000910521F485B3846085BB089587319105D8
:1016200021F485B3886085BB08958831910521F444
:1016300085B3806185BB08958931910521F485B317
:10164000806285BB08958A31910521F485B3806459
:1016500085BB08958B31910521F485B3806885BBE6
:1016600008958E31910521F482B3816082BB089583
:101670008F31910521F482B3826082BB089580325C
:10168000910521F482B3846082BB08958132910573
:1016900021F482B3886082BB08958232910521F4DF
:1016A00082B3806182BB08958332910521F482B3B5
:1016B000806282BB08958432910521F482B38064F4
:1016C00082BB0895859719F482B3806882BB089520
:1016D000CF93C82F80FF07C061E070E080E090E00A
:1016E0000E94A80906C060E070E080E090E00E94DF
:1016F000A809C1FF07C061E070E081E090E00E94AE
:10170000A80906C060E070E081E090E00E94A809AE
:10171000C2FF07C061E070E082E090E00E94A8098B
:1017200006C060E070E082E090E00E94A809C3FF7C
:1017300007C061E070E083E090E00E94A80906C065
:1017400060E070E083E090E00E94A809CF910895E6
:10175000CF93DF93EC0160E070E084E090E00E94C2
:10176000A809CE010E94680B61E070E086E090E07D
:101770000E94A8098FEC97E00197F1F700C00000E4
:1017800060E070E086E090E00E94A8098FEC97E0AE
:101790000197F1F700C00000DF91CF91089580E03C
:1017A00090E00E94A80B81E090E00E94A80B0895B1
:1017B000CF93DF938130910591F4CB0180589F4FF7
:1017C000EB01CF70DD27929582958F7089279F70EE
:1017D00089270E94A80BCE010E94A80B13C0029774
:1017E00089F4CB0180549F4FEB01CF70DD27929598
:1017F00082958F7089279F7089270E94A80BCE0140
:101800000E94A80BDF91CF91089580E090E00E94A4
:10181000680B8FE39CE90197F1F700C0000083E0BB
:1018200090E00E94A80B8FE097E20197F1F700C0CB
:10183000000083E090E00E94A80B8FEE95E50197F1
:10184000F1F700C0000083E090E00E94A80B82E066
:1018500090E00E94A80B82E090E00E94A80B88E034
:1018600090E00E94A80B80E090E00E94A80B8CE022
:1018700090E00E94A80B80E090E00E94A80B86E018
:1018800090E00E94A80B0895CF93DF93D82FDF70CC
:10189000C82FC07F61E070E084E090E00E94A8095A
:1018A0008C2F82958F7090E00E94680B61E070E051
:1018B00086E090E00E94A8098FEC97E00197F1F78D
:1018C00000C0000060E070E086E090E00E94A8099F
:1018D0008FEC97E00197F1F700C000008D2F90E0AA
:1018E0000E94680B61E070E086E090E00E94A80929
:1018F0008FEC97E00197F1F700C0000060E070E026
:1019000086E090E00E94A8098FEC97E00197F1F73C
:1019100000C00000DF91CF9108950F931F93CF93E4
:101920008C01C0E003C00E94440CCF5FF801EC0FB3
:10193000F11D80818111F7CFCF911F910F910895F3
:101940008FEF8ABB87BB0E94050C0E94FC070E9498
:101950001805FDCF5058BB27AA270E94C20C0C9433
:101960003C0E0E942E0E38F00E94350E20F039F405
:101970009F3F19F426F40C942B0E0EF4E095E7FB30
:101980000C94250EE92F0E944D0E58F3BA176207EA
:1019900073078407950720F079F4A6F50C946F0E71
:1019A0000EF4E0950B2EBA2FA02D0B01B90190017A
:1019B0000C01CA01A0011124FF27591B99F0593FBE
:1019C00050F4503E68F11A16F040A22F232F342F06
:1019D0004427585FF3CF469537952795A795F04054
:1019E0005395C9F77EF41F16BA0B620B730B840B69
:1019F000BAF09150A1F0FF0FBB1F661F771F881F21
:101A0000C2F70EC0BA0F621F731F841F48F4879578
:101A100077956795B795F7959E3F08F0B0CF93956A
:101A2000880F08F09927EE0F9795879508950E94E3
:101A3000010E08F481E008950E94300D0C943C0ED4
:101A40000E94350E58F00E942E0E40F029F45F3FA0
:101A500029F00C94250E51110C94700E0C942B0E41
:101A60000E944D0E68F39923B1F3552391F3951B12
:101A7000550BBB27AA2762177307840738F09F5FAF
:101A80005F4F220F331F441FAA1FA9F335D00E2E1C
:101A90003AF0E0E832D091505040E695001CCAF789
:101AA0002BD0FE2F29D0660F771F881FBB1F26174C
:101AB00037074807AB07B0E809F0BB0B802DBF0123
:101AC000FF2793585F4F3AF09E3F510578F00C94F2
:101AD000250E0C94700E5F3FE4F3983ED4F3869588
:101AE00077956795B795F7959F5FC9F7880F911D13
:101AF0009695879597F90895E1E0660F771F881FFF
:101B0000BB1F621773078407BA0720F0621B730BB1
:101B1000840BBA0BEE1F88F7E09508950E94950D8F
:101B20006894B1110C94700E08950E94550E88F0BF
:101B30009F5798F0B92F9927B751B0F0E1F0660F91
:101B4000771F881F991F1AF0BA95C9F714C0B130D2
:101B500091F00E946F0EB1E008950C946F0E672F04
:101B6000782F8827B85F39F0B93FCCF38695779501
:101B70006795B395D9F73EF49095809570956195EA
:101B80007F4F8F4F9F4F0895E89409C097FB3EF415
:101B900090958095709561957F4F8F4F9F4F9923BA
:101BA000A9F0F92F96E9BB279395F6958795779538
:101BB0006795B795F111F8CFFAF4BB0F11F460FFF8
:101BC0001BC06F5F7F4F8F4F9F4F16C0882311F050
:101BD00096E911C0772321F09EE8872F762F05C064
:101BE000662371F096E8862F70E060E02AF09A95FF
:101BF000660F771F881FDAF7880F9695879597F9F4
:101C00000895990F0008550FAA0BE0E8FEEF16168D
:101C10001706E807F907C0F012161306E407F507E0
:101C200098F0621B730B840B950B39F40A2661F054
:101C3000232B242B252B21F408950A2609F4A140F7
:101C4000A6958FEF811D811D089597F99F6780E804
:101C500070E060E008959FEF80EC089500240A94FE
:101C60001616170618060906089500240A94121677
:101C70001306140605060895092E0394000C11F4AA
:101C8000882352F0BB0F40F4BF2B11F460FF04C057
:101C90006F5F7F4F8F4F9F4F089557FD9058440FB0
:101CA000551F59F05F3F71F04795880F97FB991FBB
:101CB00061F09F3F79F08795089512161306140678
:101CC000551FF2CF4695F1DF08C016161706180605
:101CD000991FF1CF86957105610508940895E894E0
:101CE000BB2766277727CB0197F908950E94890EB5
:101CF0000C943C0E0E942E0E38F00E94350E20F0FF
:101D0000952311F00C94250E0C942B0E11240C9499
:101D1000700E0E944D0E70F3959FC1F3950F50E029
:101D2000551F629FF001729FBB27F00DB11D639F8D
:101D3000AA27F00DB11DAA1F649F6627B00DA11D33
:101D4000661F829F2227B00DA11D621F739FB00DD9
:101D5000A11D621F839FA00D611D221F749F332749
:101D6000A00D611D231F849F600D211D822F762FE2
:101D70006A2F11249F5750409AF0F1F088234AF0BF
:101D8000EE0FFF1FBB1F661F771F881F915050402B
:101D9000A9F79E3F510580F00C94250E0C94700E0F
:101DA0005F3FE4F3983ED4F3869577956795B795B2
:101DB000F795E7959F5FC1F7FE2B880F911D9695CC
:101DC000879597F9089519F416F40C942B0E0C943A
:101DD000290F0E94550EB8F39923C9F3B6F39F5704
:101DE000550B87FF0E94370F0024A0E640EA9001C0
:101DF00080585695979528F4805C660F771F881F4A
:101E000020F026173707480730F4621B730B840B4A
:101E1000202931294A2BA69517940794202531258E
:101E20004A2758F7660F771F881F20F026173707B5
:101E3000480730F4620B730B840B200D311D411DDC
:101E4000A09581F7B901842F9158880F96958795B1
:101E500008959F3F31F0915020F4879577956795CD
:101E6000B795880F911D9695879597F9089591508C
:101E70005040660F771F881FD2F70895EE0FFF1F9F
:101E80000590F491E02D0994A29FB001B39FC00189
:101E9000A39F700D811D1124911DB29F700D811D96
:0A1EA0001124911D0895F894FFCF5E
:0C1EAA00526F6F742800507265632800AE
:00000001FF
