S01100006B6579706164345F362E73726563CC
S11300000C942A000C9434000C9434000C943400A6
S11300100C9434000C9434000C9434000C9434008C
S11300200C9434000C9434000C9434000C9434007C
S11300300C9434000C9434000C9434000C9434006C
S11300400C9434000C9434000C9434000C9434005C
S11300500C94340011241FBECFE5D4E0DEBFCDBF25
S11300600E94E2010C94ED010C94000084B38160C1
S113007084BB84B3826084BB84B3846084BB84B354
S1130080886084BB84B38F7E84BB84B38F7D84BB40
S113009084B38F7B84BB84B38F7784BB81B38E7F1F
S11300A081BB81B38D7F81BB85B3806185BB85B303
S11300B0806285BB85B3806485BB85B3806885BB5E
S11300C082B3816082BB82B3826082BB85B381606C
S11300D085BB85B3826085BB85B3846085BB85B3EE
S11300E0886085BB089580E0E0E0E9C085B3816065
S11300F085BB85B3826085BB85B3846085BB85B3CE
S1130100886085BBE13051F028F0E23059F0E330EB
S113011069F00FC085B38E7F85BB0BC085B38D7F1F
S113012085BB07C085B38B7F85BB03C085B3877F41
S113013085BB23B3207130E0329522952F7023279D
S11301403F70232793B39072892F90E096958795FB
S1130150929582958F7089279F708927880F991FA0
S1130160282B93B39074892F90E00024880F991F53
S1130170001C880F991F001C892F902D880F991F30
S1130180880F991F822B23B3221F2227221F30E0BE
S1130190220F331F220F331F220F331F822B90B3E2
S11301A0492F417050E09A0122953295307F3227D1
S11301B0207F3227822B20B3227030E0369527959A
S11301C0220F331F22953295307F3227207F32272A
S11301D0822B23B3207130E0D901B295A295AF7080
S11301E0AB27BF70AB2763B3607270E09B01369599
S11301F02795329522952F7023273F7023272A2392
S11302003B2363B3607470E00024660F771F001C07
S1130210660F771F001C672F702D2623372363B3C7
S1130220661F6627661F70E02623372360B370E0DD
S11302302623372360B3627070E076956795262392
S11302403723232BD9F523B3207130E0B9017295FC
S113025062956F7067277F70672743B3407250E0E1
S11302609A0136952795329522952F7023273F7052
S113027023272623372343B3407450E00024440F3C
S1130280551F001C440F551F001C452F502D2423BF
S1130290352343B3441F4427441F50E0242335230C
S11302A040B350E02423352340B3427050E05695C8
S11302B0479524233523232B31F204C0EF5FE43028
S11302C008F414CFE43009F471C0E13009F130F0DE
S11302D0E230C1F1E33009F44EC06AC0873381F0E3
S11302E030F48F3159F08F3209F464C011C08D336A
S11302F059F08E3359F08B3359F404C08FE20895CA
S113030089E3089588E3089587E3089583E40895CD
S1130310873381F030F48F3159F08F3209F44CC0B7
S113032011C08D3359F08E3359F08B3359F404C016
S11303308DE4089586E3089585E3089584E308959C
S113034083E50895873379F028F48F3151F08F32A3
S1130350A9F111C08D3359F08E3359F08B3359F410
S113036004C081E4089583E3089582E3089581E35A
S1130370089580E50895873389F028F48F3151F08A
S11303808F32F1F009C08D3369F08E3369F08B330D
S113039019F406C082E4089580E008958DE3089579
S11303A08EE2089580E3089582E5089580E008953B
S11303B080E008958AE208958DE208958BE208951D
S11303C08BE208950E9436008FEF8ABB0E9473006F
S11103D08823E1F380538BBBF9CFF894FFCF61
S9030000FC
