:100000000C9431000C9443000C9443000C94430076
:100010000C9443000C9443000C9443000C94430054
:100020000C9443000C9443000C9443000C94430044
:100030000C9443000C9443000C9443000C94430034
:100040000C9443000C9443000C9443000C94430024
:100050000C944300A200A600AA00AE00B200B600B5
:10006000BA0011241FBECFE5D8E0DEBFCDBF20E02F
:10007000A0E6B0E001C01D92A136B207E1F70E94F0
:10008000CA030C9434040C940000FC011ABA86B123
:10009000806886B98081813019F0833029F007C0EB
:1000A00087B1806487B903C087B1806C87B98181CB
:1000B000813019F487B1806287B982818031D9F0AB
:1000C00038F4843081F0883091F0823019F507C01F
:1000D0008034C9F08038D9F08032E1F410C086B1A4
:1000E000816086B917C086B1826086B913C086B1B7
:1000F000836086B90FC086B1846086B90BC086B1B3
:10010000856086B907C086B1866086B903C086B1AE
:10011000876086B98481813019F486B1886086B998
:100120008381813019F486B1806286B9E5818E2F92
:1001300090E0FC013197E730F105F8F4E65DFF4F00
:100140000C94F90380B7806280BF17C080B78064C9
:1001500080BF13C080B7806680BF0FC080B7806843
:1001600080BF0BC080B7806A80BF07C080B7806C3B
:1001700080BF03C080B7806E80BF81E08093600045
:100180000895909160009130B9F597B127B1987FAB
:10019000922B97B98330A1F028F4813049F0823056
:1001A00059F01DC08530A1F078F08630A9F017C055
:1001B00087B1816087B913C087B1826087B90FC0EA
:1001C00087B1836087B90BC087B1846087B907C0E6
:1001D00087B1856087B903C087B1866087B986B16A
:1001E000806486B98AE18A95F1F700C086B18823D8
:1001F000E9F384B195B1089580E090E00895672B0C
:1002000009F0DFC0009721F48BB38E7F8BBB08957C
:100210008130910521F48BB38D7F8BBB08958230A3
:10022000910521F48BB38B7F8BBB089583309105AF
:1002300021F48BB3877F8BBB08958430910521F423
:100240008BB38F7E8BBB08958530910521F48BB3E2
:100250008F7D8BBB08958630910521F48BB38F7B06
:100260008BBB08958730910521F48BB38F778BBBBF
:1002700008958A30910521F488B38E7F88BB089554
:100280008B30910521F488B38D7F88BB08958C3025
:10029000910521F488B38B7F88BB08958D3091053B
:1002A00021F488B3877F88BB08958E30910521F4AF
:1002B00088B38F7E88BB08958F30910521F488B371
:1002C0008F7D88BB08958031910521F488B38F7BA1
:1002D00088BB08958131910521F488B38F7788BB5D
:1002E00008958431910521F485B38E7F85BB0895EF
:1002F0008531910521F485B38D7F85BB08958631C5
:10030000910521F485B38B7F85BB089587319105D5
:1003100021F485B3877F85BB08958831910521F449
:1003200085B38F7E85BB08958931910521F485B30E
:100330008F7D85BB08958A31910521F485B38F7B2C
:1003400085BB08958B31910521F485B38F7785BBEB
:1003500008958E31910521F482B38E7F82BB08957A
:100360008F31910521F482B38D7F82BB0895803255
:10037000910521F482B38B7F82BB08958132910570
:1003800021F482B3877F82BB08958232910521F4E4
:1003900082B38F7E82BB08958332910521F482B3AC
:1003A0008F7D82BB08958432910521F482B38F7BC7
:1003B00082BB0895859709F0E1C082B38F7782BB35
:1003C0000895009721F48BB381608BBB0895813031
:1003D000910521F48BB382608BBB08958230910527
:1003E00021F48BB384608BBB08958330910521F495
:1003F0008BB388608BBB08958430910521F48BB357
:1004000080618BBB08958530910521F48BB38062A8
:100410008BBB08958630910521F48BB380648BBB30
:1004200008958730910521F48BB380688BBB0895C4
:100430008A30910521F488B3816088BB08958B30A0
:10044000910521F488B3826088BB08958C309105B2
:1004500021F488B3846088BB08958D30910521F420
:1004600088B3886088BB08958E30910521F488B3E5
:10047000806188BB08958F30910521F488B3806234
:1004800088BB08958031910521F488B3806488BBCE
:1004900008958131910521F488B3806888BB08955F
:1004A0008431910521F485B3816085BB0895853140
:1004B000910521F485B3826085BB0895863191054D
:1004C00021F485B3846085BB08958731910521F4BB
:1004D00085B3886085BB08958831910521F485B383
:1004E000806185BB08958931910521F485B38062CF
:1004F00085BB08958A31910521F485B3806485BB5D
:1005000008958B31910521F485B3806885BB0895EA
:100510008E31910521F482B3816082BB08958F31C1
:10052000910521F482B3826082BB089580329105E7
:1005300021F482B3846082BB08958132910521F455
:1005400082B3886082BB08958232910521F482B320
:10055000806182BB08958332910521F482B3806269
:1005600082BB08958432910521F482B3806482BBFA
:100570000895859719F482B3806882BB0895CF935C
:10058000C82F80FF07C061E070E084E190E00E9426
:10059000FF0006C060E070E084E190E00E94FF0090
:1005A000C1FF07C061E070E085E190E00E94FF00BC
:1005B00006C060E070E085E190E00E94FF00C2FFAD
:1005C00007C061E070E086E190E00E94FF0006C095
:1005D00060E070E086E190E00E94FF00C3FF07C08A
:1005E00061E070E087E190E00E94FF0006C060E0FB
:1005F00070E087E190E00E94FF00CF910895CF93D3
:10060000DF93EC0160E070E088E190E00E94FF0081
:10061000CE010E94BF0261E070E08AE190E00E949A
:10062000FF008FEC97E00197F1F700C0000060E059
:1006300070E08AE190E00E94FF008FEC97E0019764
:10064000F1F700C00000DF91CF91089580E090E0C5
:100650000E94FF0281E090E00E94FF02089580E086
:1006600090E00E94BF028FE39CE90197F1F700C080
:10067000000083E090E00E94FF028FE097E2019784
:10068000F1F700C0000083E090E00E94FF028FEECF
:1006900095E50197F1F700C0000083E090E00E942B
:1006A000FF0282E090E00E94FF0282E090E00E9460
:1006B000FF0288E090E00E94FF0280E090E00E944C
:1006C000FF028CE090E00E94FF0280E090E00E9438
:1006D000FF0286E090E00E94FF020895CF93DF932F
:1006E000D82FDF70C82FC07F61E070E088E190E014
:1006F0000E94FF008C2F82958F7090E00E94BF02B5
:1007000061E070E08AE190E00E94FF008FEC97E0EA
:100710000197F1F700C0000060E070E08AE190E02E
:100720000E94FF008FEC97E00197F1F700C00000F6
:100730008D2F90E00E94BF0261E070E08AE190E0BE
:100740000E94FF008FEC97E00197F1F700C00000D6
:1007500060E070E08AE190E00E94FF008FEC97E09B
:100760000197F1F700C00000DF91CF9108950F933A
:100770001F93CF938C01C0E003C00E946E03CF5F34
:10078000F801EC0FF11D80818111F7CFCF911F91FE
:100790000F910895CF93DF93CDB7DEB760970FB673
:1007A000F894DEBF0FBECDBF8FEF84BB0E942F0336
:1007B00080E88B8381E08983CE0101960E94450009
:1007C0000E94260380E00E94C1004AE0BE01695FEA
:1007D0007F4F0E94FF03CE0107960E94B7032FEFC1
:1007E00083E294EF215080409040E1F700C0000088
:1007F000E7CFEE0FFF1F0590F491E02D0994BB2782
:100800004A3031F4992322F4BDE2909581959F4FAF
:100810000C940B04BB27FB015527AA27880F991FAF
:10082000AA1FA41710F0A41B83955051B9F7A05D1F
:10083000AA3308F0A95DA193009779F7B111B1939C
:100840001192CB010C942404DC01FC01672F7191FF
:100850007723E1F7329704C07C916D9370836291A6
:0C086000AE17BF07C8F30895F894FFCF4F
:00000001FF
