:100000000C942A000C9434000C9434000C943400AA
:100010000C9434000C9434000C9434000C94340090
:100020000C9434000C9434000C9434000C94340080
:100030000C9434000C9434000C9434000C94340070
:100040000C9434000C9434000C9434000C94340060
:100050000C94340011241FBECFE5D8E0DEBFCDBF25
:100060000E9436000C946B000C9400000E94550016
:10007000C0E0D0E00E945B008C2F0E9464002FEF54
:1000800083ED90E3215080409040E1F700C00000F4
:100090000E9461002FE788E391E02150804090406A
:1000A000E1F700C000002196E5CF11B880E280B9E9
:1000B00084E086BF089584EA86BF06B607FEFDCFBA
:1000C000089584E886BF089583B984E886BF06B69C
:0A00D00007FEFDCF0895F894FFCF5E
:00000001FF
