:100000000C942A000C9434000C9434000C943400AA
:100010000C9434000C9434000C9434000C94340090
:100020000C9434000C9434000C9434000C94340080
:100030000C9434000C9434000C9434000C94340070
:100040000C9434000C9434000C9434000C94340060
:100050000C94340011241FBECFE5D8E0DEBFCDBF25
:100060000E940B040C9421040C94000084B3816062
:1000700084BB84B3826084BB84B3846084BB84B358
:10008000886084BB84B38F7E84BB84B38F7D84BB44
:1000900084B38F7B84BB84B38F7784BB85B380614B
:1000A00085BB85B3806285BB85B3806485BB85B322
:1000B000806885BB85B3816085BB85B3826085BB65
:1000C00085B3846085BB85B3886085BB089540E0B7
:1000D0009AC085B3816085BB85B3826085BB85B3DB
:1000E000846085BB85B3886085BB413051F028F0C2
:1000F000423059F0433069F00FC085B38E7F85BB25
:100100000BC085B38D7F85BB07C085B38B7F85BB57
:1001100003C085B3877F85BB93B3292F207153B369
:100120005072952F922B53B35074592B83B3982F41
:10013000991F9927991F892F90E09695982F8827C6
:1001400097958795582B83B3807190E09C013295E9
:1001500022952F7023273F70232793B39072892F06
:1001600090E096958795929582958F7089279F70DC
:1001700089278223932323B3207430E00024220FA5
:10018000331F001C220F331F001C232F302D82230E
:10019000932323B3221F2227221F30E0822393239D
:1001A000019781F183B3807190E09C013295229593
:1001B0002F7023273F70232793B39072892F90E0ED
:1001C00096958795929582958F7089279F7089273C
:1001D0008223932323B3207430E00024220F331FA3
:1001E000001C220F331F001C232F302D822393234A
:1001F00023B3221F2227221F30E08223932301975B
:1002000089F604C04F5F443008F463CF443009F4EA
:100210004FC04130C1F028F0423031F14330A9F1F4
:1002200049C0503B09F448C018F4503731F00BC0B6
:10023000503D29F0503E29F006C08FE2089588E332
:10024000089587E30895503BC9F118F4503731F011
:100250000BC0503D29F0503E29F006C08AE20895B7
:1002600085E3089584E30895503B51F118F4503725
:1002700031F00BC0503D29F0503E29F006C08DE210
:10028000089582E3089581E30895503BD9F018F46E
:10029000503731F007C0503D39F0503E39F002C0C0
:1002A0008BE2089580E0089580E3089583E4089543
:1002B00080E0089580E0089589E3089586E3089535
:1002C00083E308958DE30895672B09F0DFC000975D
:1002D00021F48BB38E7F8BBB08958130910521F47F
:1002E0008BB38D7F8BBB08958230910521F48BB346
:1002F0008B7F8BBB08958330910521F48BB3877F6F
:100300008BBB08958430910521F48BB38F7E8BBB1A
:1003100008958530910521F48BB38F7D8BBB0895B3
:100320008630910521F48BB38F7B8BBB089587308A
:10033000910521F48BB38F778BBB08958A3091059B
:1003400021F488B38E7F88BB08958B30910521F40A
:1003500088B38D7F88BB08958C30910521F488B3D4
:100360008B7F88BB08958D30910521F488B3877FFA
:1003700088BB08958E30910521F488B38F7E88BBA9
:1003800008958F30910521F488B38F7D88BB08953F
:100390008031910521F488B38F7B88BB089581312A
:1003A000910521F488B38F7788BB08958431910536
:1003B00021F485B38E7F85BB08958531910521F4A5
:1003C00085B38D7F85BB08958631910521F485B372
:1003D0008B7F85BB08958731910521F485B3877F95
:1003E00085BB08958831910521F485B38F7E85BB47
:1003F00008958931910521F485B38F7D85BB0895DA
:100400008A31910521F485B38F7B85BB08958B31AB
:10041000910521F485B38F7785BB08958E319105C1
:1004200021F482B38E7F82BB08958F31910521F430
:1004300082B38D7F82BB08958032910521F482B30F
:100440008B7F82BB08958132910521F482B3877F2F
:1004500082BB08958232910521F482B38F7E82BBE4
:1004600008958332910521F482B38F7D82BB089574
:100470008432910521F482B38F7B82BB08958597E6
:1004800009F0E1C082B38F7782BB0895009721F411
:100490008BB381608BBB08958130910521F48BB3C0
:1004A00082608BBB08958230910521F48BB3846008
:1004B0008BBB08958330910521F48BB388608BBB8F
:1004C00008958430910521F48BB380618BBB08952E
:1004D0008530910521F48BB380628BBB0895863003
:1004E000910521F48BB380648BBB0895873091050F
:1004F00021F48BB380688BBB08958A30910521F479
:1005000088B3816088BB08958B30910521F488B34E
:10051000826088BB08958C30910521F488B3846093
:1005200088BB08958D30910521F488B3886088BB1D
:1005300008958E30910521F488B3806188BB0895B9
:100540008F30910521F488B3806288BB0895803193
:10055000910521F488B3806488BB089581319105A9
:1005600021F488B3806888BB08958431910521F413
:1005700085B3816085BB08958531910521F485B3EC
:10058000826085BB08958631910521F485B384602E
:1005900085BB08958731910521F485B3886085BBBB
:1005A00008958831910521F485B3806185BB089554
:1005B0008931910521F485B3806285BB08958A3124
:1005C000910521F485B3806485BB08958B31910535
:1005D00021F485B3806885BB08958E31910521F49F
:1005E00082B3816082BB08958F31910521F482B37B
:1005F000826082BB08958032910521F482B38460C9
:1006000082BB08958132910521F482B3886082BB58
:1006100008958232910521F482B3806182BB0895EE
:100620008332910521F482B3806282BB08958432C3
:10063000910521F482B3806482BB0895859719F4F3
:1006400082B3806882BB0895CF93C82F80FF07C014
:1006500061E070E080E090E00E94640106C060E02C
:1006600070E080E090E00E946401C1FF07C061E09B
:1006700070E081E090E00E94640106C060E070E0FC
:1006800081E090E00E946401C2FF07C061E070E079
:1006900082E090E00E94640106C060E070E082E0C9
:1006A00090E00E946401C3FF07C061E070E083E056
:1006B00090E00E94640106C060E070E083E090E09A
:1006C0000E946401CF910895CF93C82F60E070E03D
:1006D00084E090E00E9464018C2F0E94240361E07A
:1006E00070E086E090E00E9464018FEC97E0019753
:1006F000F1F700C0000060E070E086E090E00E944A
:1007000064018FEC97E00197F1F700C00000CF91F2
:10071000089580E00E94640381E00E9464030895CC
:1007200080E00E9424038FE39CE90197F1F700C069
:10073000000083E00E9464038FE097E20197F1F7E5
:1007400000C0000083E00E9464038FEE95E50197EE
:10075000F1F700C0000083E00E94640382E00E9481
:10076000640382E00E94640388E00E94640380E0E6
:100770000E9464038CE00E94640380E00E94640392
:1007800086E00E9464030895CF93DF93D82FDF7033
:10079000C82FC07F61E070E084E090E00E946401B7
:1007A0008C2F82958F700E94240361E070E086E0B8
:1007B00090E00E9464018FEC97E00197F1F700C090
:1007C000000060E070E086E090E00E9464018FEC41
:1007D00097E00197F1F700C000008D2F0E942403DD
:1007E00061E070E086E090E00E9464018FEC97E0A9
:1007F0000197F1F700C0000060E070E086E090E053
:100800000E9464018FEC97E00197F1F700C00000AF
:10081000DF91CF9108958FEF8ABB0E9490030E94D1
:1008200036000E946700282F30E021153105C9F3FA
:100830002334310519F40E948903F3CF0E94C403C5
:06084000F0CFF894FFCF99
:00000001FF
