S00B00005254432E7372656330
S11300000C942A000C9434000C9434000C943400A6
S11300100C9434000C9434000C9434000C9434008C
S11300200C9434000C9434000C9434000C9434007C
S11300300C9434000C9434000C9434000C9434006C
S11300400C9434000C9434000C9434000C9434005C
S11300500C94340011241FBECFE5D8E0DEBFCDBF21
S11300600E9436000C94A0000C940000CF93DF9300
S1130070CDB7DEB727970FB6F894DEBF0FBECDBF5E
S11300800E948A0083E0898380E18A8323E930E047
S11300903C832B8390E49D8395E29E838F83CE01E2
S11300A005960E945800CE0101960E947100FFCF70
S11300B0CF93DF93EC010E94900080ED0E949900A1
S11300C080E00E94990088810E94990089810E94A1
S11300D099008A810E9499000E949600DF91CF9135
S11300E00895CF93DF93EC010E94900080ED0E946D
S11300F0990084E00E94990088810E949900898176
S11301000E9499008A810E9499000E949600DF91C2
S1130110CF91089511B880E280B984E086BF089534
S113012084EA86BF06B607FEFDCF089584E986BF3C
S1130130089583B984E886BF06B607FEFDCF089507
S1070140F894FFCF5D
S9030000FC
