S00B00005350492E737265632D
S11300000C942A000C9434000C9434000C943400A6
S11300100C9434000C9434000C9434000C9434008C
S11300200C9434000C9434000C9434000C9434007C
S11300300C9434000C9434000C9434000C9434006C
S11300400C9434000C9434000C9434000C9434005C
S11300500C94340011241FBECFE5D4E0DEBFCDBF25
S11300600E9436000C945A000C9400000E944E002A
S11300702FEF83ED90E3215080409040E1F700C0E2
S1130080000088EF0E9456002FEF83ED90E321508B
S113009080409040E1F700C00000F3CF80EB87BBC5
S11300A087B38F7B87BB81E58DB908958FB9779B23
S10B00B0FECF0895F894FFCF80
S9030000FC
