S00B00004144432E7372656351
S11300000C9431000C9443000C9443000C94430072
S11300100C9443000C9443000C9443000C94430050
S11300200C9443000C9443000C9443000C94430040
S11300300C9443000C9443000C9443000C94430030
S11300400C9443000C9443000C9443000C94430020
S11300500C944300A200A600AA00AE00B200B600B1
S1130060BA0011241FBECFE5D8E0DEBFCDBF20E02B
S1130070A0E6B0E001C01D92A136B207E1F70E94EC
S1130080FA000C9421010C940000FC011ABA86B108
S1130090806886B98081813019F0833029F007C0E7
S11300A087B1806487B903C087B1806C87B98181C7
S11300B0813019F487B1806287B982818031D9F0A7
S11300C038F4843081F0883091F0823019F507C01B
S11300D08034C9F08038D9F08032E1F410C086B1A0
S11300E0816086B917C086B1826086B913C086B1B3
S11300F0836086B90FC086B1846086B90BC086B1AF
S1130100856086B907C086B1866086B903C086B1AA
S1130110876086B98481813019F486B1886086B994
S11301208381813019F486B1806286B9E5818E2F8E
S113013090E0FC013197E730F105F8F4E65DFF4FFC
S11301400C941B0180B7806280BF17C080B78064A5
S113015080BF13C080B7806680BF0FC080B780683F
S113016080BF0BC080B7806A80BF07C080B7806C37
S113017080BF03C080B7806E80BF81E08093600041
S1130180089590916000913091F58330A1F028F4A6
S1130190813049F0823059F01DC08530A1F078F0EB
S11301A08630A9F017C087B1816087B913C087B1C1
S11301B0826087B90FC087B1836087B90BC087B1EC
S11301C0846087B907C087B1856087B903C087B1E8
S11301D0866087B986B1806486B98AE18A95F1F729
S11301E000C086B18823E9F384B195B1089580E015
S11301F090E00895CF93DF9300D000D000D0CDB726
S1130200DEB78FEF84BB81E0898382E08B83CE01EC
S113021001960E94450080E00E94C100009709F009
S113022085BB2FEF83E294EF215080409040E1F7AB
S113023000C00000F0CFEE0FFF1F0590F491E02DF9
S10902400994F894FFCFBD
S9030000FC
